{
	"contracts/1_Storage.sol": {
		"MyContract": {
			"abi": [
				{
					"inputs": [
						{
							"internalType": "address",
							"name": "_otherContract",
							"type": "address"
						}
					],
					"stateMutability": "nonpayable",
					"type": "constructor"
				},
				{
					"inputs": [],
					"name": "callReceive",
					"outputs": [],
					"stateMutability": "payable",
					"type": "function"
				}
			],
			"devdoc": {
				"kind": "dev",
				"methods": {},
				"version": 1
			},
			"evm": {
				"assembly": "    /* \"contracts/1_Storage.sol\":70:385  contract MyContract {... */\n  mstore(0x40, 0x80)\n    /* \"contracts/1_Storage.sol\":123:205  constructor(address _otherContract) {... */\n  callvalue\n  dup1\n  iszero\n  tag_1\n  jumpi\n  0x00\n  dup1\n  revert\ntag_1:\n  pop\n  mload(0x40)\n  sub(codesize, bytecodeSize)\n  dup1\n  bytecodeSize\n  dup4\n  codecopy\n  dup2\n  dup2\n  add\n  0x40\n  mstore\n  dup2\n  add\n  swap1\n  tag_2\n  swap2\n  swap1\n  tag_3\n  jump\t// in\ntag_2:\n    /* \"contracts/1_Storage.sol\":185:198  otherContract */\n  0x00\n  dup1\n  sload\n  swap1\n  0x0100\n  exp\n  swap1\n  div\n  0xffffffffffffffffffffffffffffffffffffffff\n  and\n    /* \"contracts/1_Storage.sol\":169:182  otherContract */\n  0x00\n  dup1\n    /* \"contracts/1_Storage.sol\":169:198  otherContract = otherContract */\n  0x0100\n  exp\n  dup2\n  sload\n  dup2\n  0xffffffffffffffffffffffffffffffffffffffff\n  mul\n  not\n  and\n  swap1\n  dup4\n  0xffffffffffffffffffffffffffffffffffffffff\n  and\n  mul\n  or\n  swap1\n  sstore\n  pop\n    /* \"contracts/1_Storage.sol\":123:205  constructor(address _otherContract) {... */\n  pop\n    /* \"contracts/1_Storage.sol\":70:385  contract MyContract {... */\n  jump(tag_6)\n    /* \"#utility.yul\":88:205   */\ntag_8:\n    /* \"#utility.yul\":197:198   */\n  0x00\n    /* \"#utility.yul\":194:195   */\n  dup1\n    /* \"#utility.yul\":187:199   */\n  revert\n    /* \"#utility.yul\":334:460   */\ntag_10:\n    /* \"#utility.yul\":371:378   */\n  0x00\n    /* \"#utility.yul\":411:453   */\n  0xffffffffffffffffffffffffffffffffffffffff\n    /* \"#utility.yul\":404:409   */\n  dup3\n    /* \"#utility.yul\":400:454   */\n  and\n    /* \"#utility.yul\":389:454   */\n  swap1\n  pop\n    /* \"#utility.yul\":334:460   */\n  swap2\n  swap1\n  pop\n  jump\t// out\n    /* \"#utility.yul\":466:562   */\ntag_11:\n    /* \"#utility.yul\":503:510   */\n  0x00\n    /* \"#utility.yul\":532:556   */\n  tag_20\n    /* \"#utility.yul\":550:555   */\n  dup3\n    /* \"#utility.yul\":532:556   */\n  tag_10\n  jump\t// in\ntag_20:\n    /* \"#utility.yul\":521:556   */\n  swap1\n  pop\n    /* \"#utility.yul\":466:562   */\n  swap2\n  swap1\n  pop\n  jump\t// out\n    /* \"#utility.yul\":568:690   */\ntag_12:\n    /* \"#utility.yul\":641:665   */\n  tag_22\n    /* \"#utility.yul\":659:664   */\n  dup2\n    /* \"#utility.yul\":641:665   */\n  tag_11\n  jump\t// in\ntag_22:\n    /* \"#utility.yul\":634:639   */\n  dup2\n    /* \"#utility.yul\":631:666   */\n  eq\n    /* \"#utility.yul\":621:684   */\n  tag_23\n  jumpi\n    /* \"#utility.yul\":680:681   */\n  0x00\n    /* \"#utility.yul\":677:678   */\n  dup1\n    /* \"#utility.yul\":670:682   */\n  revert\n    /* \"#utility.yul\":621:684   */\ntag_23:\n    /* \"#utility.yul\":568:690   */\n  pop\n  jump\t// out\n    /* \"#utility.yul\":696:839   */\ntag_13:\n    /* \"#utility.yul\":753:758   */\n  0x00\n    /* \"#utility.yul\":784:790   */\n  dup2\n    /* \"#utility.yul\":778:791   */\n  mload\n    /* \"#utility.yul\":769:791   */\n  swap1\n  pop\n    /* \"#utility.yul\":800:833   */\n  tag_25\n    /* \"#utility.yul\":827:832   */\n  dup2\n    /* \"#utility.yul\":800:833   */\n  tag_12\n  jump\t// in\ntag_25:\n    /* \"#utility.yul\":696:839   */\n  swap3\n  swap2\n  pop\n  pop\n  jump\t// out\n    /* \"#utility.yul\":845:1196   */\ntag_3:\n    /* \"#utility.yul\":915:921   */\n  0x00\n    /* \"#utility.yul\":964:966   */\n  0x20\n    /* \"#utility.yul\":952:961   */\n  dup3\n    /* \"#utility.yul\":943:950   */\n  dup5\n    /* \"#utility.yul\":939:962   */\n  sub\n    /* \"#utility.yul\":935:967   */\n  slt\n    /* \"#utility.yul\":932:1051   */\n  iszero\n  tag_27\n  jumpi\n    /* \"#utility.yul\":970:1049   */\n  tag_28\n  tag_8\n  jump\t// in\ntag_28:\n    /* \"#utility.yul\":932:1051   */\ntag_27:\n    /* \"#utility.yul\":1090:1091   */\n  0x00\n    /* \"#utility.yul\":1115:1179   */\n  tag_29\n    /* \"#utility.yul\":1171:1178   */\n  dup5\n    /* \"#utility.yul\":1162:1168   */\n  dup3\n    /* \"#utility.yul\":1151:1160   */\n  dup6\n    /* \"#utility.yul\":1147:1169   */\n  add\n    /* \"#utility.yul\":1115:1179   */\n  tag_13\n  jump\t// in\ntag_29:\n    /* \"#utility.yul\":1105:1179   */\n  swap2\n  pop\n    /* \"#utility.yul\":1061:1189   */\n  pop\n    /* \"#utility.yul\":845:1196   */\n  swap3\n  swap2\n  pop\n  pop\n  jump\t// out\n    /* \"contracts/1_Storage.sol\":70:385  contract MyContract {... */\ntag_6:\n  dataSize(sub_0)\n  dup1\n  dataOffset(sub_0)\n  0x00\n  codecopy\n  0x00\n  return\nstop\n\nsub_0: assembly {\n        /* \"contracts/1_Storage.sol\":70:385  contract MyContract {... */\n      mstore(0x40, 0x80)\n      jumpi(tag_1, lt(calldatasize, 0x04))\n      shr(0xe0, calldataload(0x00))\n      dup1\n      0x6fbac4b5\n      eq\n      tag_2\n      jumpi\n    tag_1:\n      0x00\n      dup1\n      revert\n        /* \"contracts/1_Storage.sol\":211:383  function callReceive() external payable  {... */\n    tag_2:\n      tag_3\n      tag_4\n      jump\t// in\n    tag_3:\n      stop\n    tag_4:\n        /* \"contracts/1_Storage.sol\":263:275  bool success */\n      0x00\n        /* \"contracts/1_Storage.sol\":280:293  otherContract */\n      dup1\n      0x00\n      swap1\n      sload\n      swap1\n      0x0100\n      exp\n      swap1\n      div\n      0xffffffffffffffffffffffffffffffffffffffff\n      and\n        /* \"contracts/1_Storage.sol\":280:298  otherContract.call */\n      0xffffffffffffffffffffffffffffffffffffffff\n      and\n        /* \"contracts/1_Storage.sol\":306:315  msg.value */\n      callvalue\n        /* \"contracts/1_Storage.sol\":280:320  otherContract.call{value: msg.value}(\"\") */\n      mload(0x40)\n      tag_6\n      swap1\n      tag_7\n      jump\t// in\n    tag_6:\n      0x00\n      mload(0x40)\n      dup1\n      dup4\n      sub\n      dup2\n      dup6\n      dup8\n      gas\n      call\n      swap3\n      pop\n      pop\n      pop\n      returndatasize\n      dup1\n      0x00\n      dup2\n      eq\n      tag_10\n      jumpi\n      mload(0x40)\n      swap2\n      pop\n      and(add(returndatasize, 0x3f), not(0x1f))\n      dup3\n      add\n      0x40\n      mstore\n      returndatasize\n      dup3\n      mstore\n      returndatasize\n      0x00\n      0x20\n      dup5\n      add\n      returndatacopy\n      jump(tag_9)\n    tag_10:\n      0x60\n      swap2\n      pop\n    tag_9:\n      pop\n        /* \"contracts/1_Storage.sol\":262:320  (bool success,) = otherContract.call{value: msg.value}(\"\") */\n      pop\n      swap1\n      pop\n        /* \"contracts/1_Storage.sol\":348:355  success */\n      dup1\n        /* \"contracts/1_Storage.sol\":340:376  require(success, \"can't send money\") */\n      tag_11\n      jumpi\n      mload(0x40)\n      0x08c379a000000000000000000000000000000000000000000000000000000000\n      dup2\n      mstore\n      0x04\n      add\n      tag_12\n      swap1\n      tag_13\n      jump\t// in\n    tag_12:\n      mload(0x40)\n      dup1\n      swap2\n      sub\n      swap1\n      revert\n    tag_11:\n        /* \"contracts/1_Storage.sol\":252:383  {... */\n      pop\n        /* \"contracts/1_Storage.sol\":211:383  function callReceive() external payable  {... */\n      jump\t// out\n        /* \"#utility.yul\":7:154   */\n    tag_14:\n        /* \"#utility.yul\":108:119   */\n      0x00\n        /* \"#utility.yul\":145:148   */\n      dup2\n        /* \"#utility.yul\":130:148   */\n      swap1\n      pop\n        /* \"#utility.yul\":7:154   */\n      swap3\n      swap2\n      pop\n      pop\n      jump\t// out\n        /* \"#utility.yul\":160:274   */\n    tag_15:\n      pop\n      jump\t// out\n        /* \"#utility.yul\":280:678   */\n    tag_16:\n        /* \"#utility.yul\":439:442   */\n      0x00\n        /* \"#utility.yul\":460:543   */\n      tag_24\n        /* \"#utility.yul\":541:542   */\n      0x00\n        /* \"#utility.yul\":536:539   */\n      dup4\n        /* \"#utility.yul\":460:543   */\n      tag_14\n      jump\t// in\n    tag_24:\n        /* \"#utility.yul\":453:543   */\n      swap2\n      pop\n        /* \"#utility.yul\":552:645   */\n      tag_25\n        /* \"#utility.yul\":641:644   */\n      dup3\n        /* \"#utility.yul\":552:645   */\n      tag_15\n      jump\t// in\n    tag_25:\n        /* \"#utility.yul\":670:671   */\n      0x00\n        /* \"#utility.yul\":665:668   */\n      dup3\n        /* \"#utility.yul\":661:672   */\n      add\n        /* \"#utility.yul\":654:672   */\n      swap1\n      pop\n        /* \"#utility.yul\":280:678   */\n      swap2\n      swap1\n      pop\n      jump\t// out\n        /* \"#utility.yul\":684:1063   */\n    tag_7:\n        /* \"#utility.yul\":868:871   */\n      0x00\n        /* \"#utility.yul\":890:1037   */\n      tag_27\n        /* \"#utility.yul\":1033:1036   */\n      dup3\n        /* \"#utility.yul\":890:1037   */\n      tag_16\n      jump\t// in\n    tag_27:\n        /* \"#utility.yul\":883:1037   */\n      swap2\n      pop\n        /* \"#utility.yul\":1054:1057   */\n      dup2\n        /* \"#utility.yul\":1047:1057   */\n      swap1\n      pop\n        /* \"#utility.yul\":684:1063   */\n      swap2\n      swap1\n      pop\n      jump\t// out\n        /* \"#utility.yul\":1069:1238   */\n    tag_17:\n        /* \"#utility.yul\":1153:1164   */\n      0x00\n        /* \"#utility.yul\":1187:1193   */\n      dup3\n        /* \"#utility.yul\":1182:1185   */\n      dup3\n        /* \"#utility.yul\":1175:1194   */\n      mstore\n        /* \"#utility.yul\":1227:1231   */\n      0x20\n        /* \"#utility.yul\":1222:1225   */\n      dup3\n        /* \"#utility.yul\":1218:1232   */\n      add\n        /* \"#utility.yul\":1203:1232   */\n      swap1\n      pop\n        /* \"#utility.yul\":1069:1238   */\n      swap3\n      swap2\n      pop\n      pop\n      jump\t// out\n        /* \"#utility.yul\":1244:1410   */\n    tag_18:\n        /* \"#utility.yul\":1384:1402   */\n      0x63616e27742073656e64206d6f6e657900000000000000000000000000000000\n        /* \"#utility.yul\":1380:1381   */\n      0x00\n        /* \"#utility.yul\":1372:1378   */\n      dup3\n        /* \"#utility.yul\":1368:1382   */\n      add\n        /* \"#utility.yul\":1361:1403   */\n      mstore\n        /* \"#utility.yul\":1244:1410   */\n      pop\n      jump\t// out\n        /* \"#utility.yul\":1416:1782   */\n    tag_19:\n        /* \"#utility.yul\":1558:1561   */\n      0x00\n        /* \"#utility.yul\":1579:1646   */\n      tag_31\n        /* \"#utility.yul\":1643:1645   */\n      0x10\n        /* \"#utility.yul\":1638:1641   */\n      dup4\n        /* \"#utility.yul\":1579:1646   */\n      tag_17\n      jump\t// in\n    tag_31:\n        /* \"#utility.yul\":1572:1646   */\n      swap2\n      pop\n        /* \"#utility.yul\":1655:1748   */\n      tag_32\n        /* \"#utility.yul\":1744:1747   */\n      dup3\n        /* \"#utility.yul\":1655:1748   */\n      tag_18\n      jump\t// in\n    tag_32:\n        /* \"#utility.yul\":1773:1775   */\n      0x20\n        /* \"#utility.yul\":1768:1771   */\n      dup3\n        /* \"#utility.yul\":1764:1776   */\n      add\n        /* \"#utility.yul\":1757:1776   */\n      swap1\n      pop\n        /* \"#utility.yul\":1416:1782   */\n      swap2\n      swap1\n      pop\n      jump\t// out\n        /* \"#utility.yul\":1788:2207   */\n    tag_13:\n        /* \"#utility.yul\":1954:1958   */\n      0x00\n        /* \"#utility.yul\":1992:1994   */\n      0x20\n        /* \"#utility.yul\":1981:1990   */\n      dup3\n        /* \"#utility.yul\":1977:1995   */\n      add\n        /* \"#utility.yul\":1969:1995   */\n      swap1\n      pop\n        /* \"#utility.yul\":2041:2050   */\n      dup2\n        /* \"#utility.yul\":2035:2039   */\n      dup2\n        /* \"#utility.yul\":2031:2051   */\n      sub\n        /* \"#utility.yul\":2027:2028   */\n      0x00\n        /* \"#utility.yul\":2016:2025   */\n      dup4\n        /* \"#utility.yul\":2012:2029   */\n      add\n        /* \"#utility.yul\":2005:2052   */\n      mstore\n        /* \"#utility.yul\":2069:2200   */\n      tag_34\n        /* \"#utility.yul\":2195:2199   */\n      dup2\n        /* \"#utility.yul\":2069:2200   */\n      tag_19\n      jump\t// in\n    tag_34:\n        /* \"#utility.yul\":2061:2200   */\n      swap1\n      pop\n        /* \"#utility.yul\":1788:2207   */\n      swap2\n      swap1\n      pop\n      jump\t// out\n\n    auxdata: 0xa2646970667358221220cc8ff171b79d40208e784fe8e38e81d59de3dc2564385fd35a91c57ea3bf271664736f6c634300081a0033\n}\n",
				"bytecode": {
					"linkReferences": {},
					"object": "608060405234801561000f575f80fd5b50604051610310380380610310833981810160405281019061003191906100f3565b5f8054906101000a900473ffffffffffffffffffffffffffffffffffffffff165f806101000a81548173ffffffffffffffffffffffffffffffffffffffff021916908373ffffffffffffffffffffffffffffffffffffffff1602179055505061011e565b5f80fd5b5f73ffffffffffffffffffffffffffffffffffffffff82169050919050565b5f6100c282610099565b9050919050565b6100d2816100b8565b81146100dc575f80fd5b50565b5f815190506100ed816100c9565b92915050565b5f6020828403121561010857610107610095565b5b5f610115848285016100df565b91505092915050565b6101e58061012b5f395ff3fe60806040526004361061001d575f3560e01c80636fbac4b514610021575b5f80fd5b61002961002b565b005b5f805f9054906101000a900473ffffffffffffffffffffffffffffffffffffffff1673ffffffffffffffffffffffffffffffffffffffff163460405161007090610123565b5f6040518083038185875af1925050503d805f81146100aa576040519150601f19603f3d011682016040523d82523d5f602084013e6100af565b606091505b50509050806100f3576040517f08c379a00000000000000000000000000000000000000000000000000000000081526004016100ea90610191565b60405180910390fd5b50565b5f81905092915050565b50565b5f61010e5f836100f6565b915061011982610100565b5f82019050919050565b5f61012d82610103565b9150819050919050565b5f82825260208201905092915050565b7f63616e27742073656e64206d6f6e6579000000000000000000000000000000005f82015250565b5f61017b601083610137565b915061018682610147565b602082019050919050565b5f6020820190508181035f8301526101a88161016f565b905091905056fea2646970667358221220cc8ff171b79d40208e784fe8e38e81d59de3dc2564385fd35a91c57ea3bf271664736f6c634300081a0033",
					"opcodes": "PUSH1 0x80 PUSH1 0x40 MSTORE CALLVALUE DUP1 ISZERO PUSH2 0xF JUMPI PUSH0 DUP1 REVERT JUMPDEST POP PUSH1 0x40 MLOAD PUSH2 0x310 CODESIZE SUB DUP1 PUSH2 0x310 DUP4 CODECOPY DUP2 DUP2 ADD PUSH1 0x40 MSTORE DUP2 ADD SWAP1 PUSH2 0x31 SWAP2 SWAP1 PUSH2 0xF3 JUMP JUMPDEST PUSH0 DUP1 SLOAD SWAP1 PUSH2 0x100 EXP SWAP1 DIV PUSH20 0xFFFFFFFFFFFFFFFFFFFFFFFFFFFFFFFFFFFFFFFF AND PUSH0 DUP1 PUSH2 0x100 EXP DUP2 SLOAD DUP2 PUSH20 0xFFFFFFFFFFFFFFFFFFFFFFFFFFFFFFFFFFFFFFFF MUL NOT AND SWAP1 DUP4 PUSH20 0xFFFFFFFFFFFFFFFFFFFFFFFFFFFFFFFFFFFFFFFF AND MUL OR SWAP1 SSTORE POP POP PUSH2 0x11E JUMP JUMPDEST PUSH0 DUP1 REVERT JUMPDEST PUSH0 PUSH20 0xFFFFFFFFFFFFFFFFFFFFFFFFFFFFFFFFFFFFFFFF DUP3 AND SWAP1 POP SWAP2 SWAP1 POP JUMP JUMPDEST PUSH0 PUSH2 0xC2 DUP3 PUSH2 0x99 JUMP JUMPDEST SWAP1 POP SWAP2 SWAP1 POP JUMP JUMPDEST PUSH2 0xD2 DUP2 PUSH2 0xB8 JUMP JUMPDEST DUP2 EQ PUSH2 0xDC JUMPI PUSH0 DUP1 REVERT JUMPDEST POP JUMP JUMPDEST PUSH0 DUP2 MLOAD SWAP1 POP PUSH2 0xED DUP2 PUSH2 0xC9 JUMP JUMPDEST SWAP3 SWAP2 POP POP JUMP JUMPDEST PUSH0 PUSH1 0x20 DUP3 DUP5 SUB SLT ISZERO PUSH2 0x108 JUMPI PUSH2 0x107 PUSH2 0x95 JUMP JUMPDEST JUMPDEST PUSH0 PUSH2 0x115 DUP5 DUP3 DUP6 ADD PUSH2 0xDF JUMP JUMPDEST SWAP2 POP POP SWAP3 SWAP2 POP POP JUMP JUMPDEST PUSH2 0x1E5 DUP1 PUSH2 0x12B PUSH0 CODECOPY PUSH0 RETURN INVALID PUSH1 0x80 PUSH1 0x40 MSTORE PUSH1 0x4 CALLDATASIZE LT PUSH2 0x1D JUMPI PUSH0 CALLDATALOAD PUSH1 0xE0 SHR DUP1 PUSH4 0x6FBAC4B5 EQ PUSH2 0x21 JUMPI JUMPDEST PUSH0 DUP1 REVERT JUMPDEST PUSH2 0x29 PUSH2 0x2B JUMP JUMPDEST STOP JUMPDEST PUSH0 DUP1 PUSH0 SWAP1 SLOAD SWAP1 PUSH2 0x100 EXP SWAP1 DIV PUSH20 0xFFFFFFFFFFFFFFFFFFFFFFFFFFFFFFFFFFFFFFFF AND PUSH20 0xFFFFFFFFFFFFFFFFFFFFFFFFFFFFFFFFFFFFFFFF AND CALLVALUE PUSH1 0x40 MLOAD PUSH2 0x70 SWAP1 PUSH2 0x123 JUMP JUMPDEST PUSH0 PUSH1 0x40 MLOAD DUP1 DUP4 SUB DUP2 DUP6 DUP8 GAS CALL SWAP3 POP POP POP RETURNDATASIZE DUP1 PUSH0 DUP2 EQ PUSH2 0xAA JUMPI PUSH1 0x40 MLOAD SWAP2 POP PUSH1 0x1F NOT PUSH1 0x3F RETURNDATASIZE ADD AND DUP3 ADD PUSH1 0x40 MSTORE RETURNDATASIZE DUP3 MSTORE RETURNDATASIZE PUSH0 PUSH1 0x20 DUP5 ADD RETURNDATACOPY PUSH2 0xAF JUMP JUMPDEST PUSH1 0x60 SWAP2 POP JUMPDEST POP POP SWAP1 POP DUP1 PUSH2 0xF3 JUMPI PUSH1 0x40 MLOAD PUSH32 0x8C379A000000000000000000000000000000000000000000000000000000000 DUP2 MSTORE PUSH1 0x4 ADD PUSH2 0xEA SWAP1 PUSH2 0x191 JUMP JUMPDEST PUSH1 0x40 MLOAD DUP1 SWAP2 SUB SWAP1 REVERT JUMPDEST POP JUMP JUMPDEST PUSH0 DUP2 SWAP1 POP SWAP3 SWAP2 POP POP JUMP JUMPDEST POP JUMP JUMPDEST PUSH0 PUSH2 0x10E PUSH0 DUP4 PUSH2 0xF6 JUMP JUMPDEST SWAP2 POP PUSH2 0x119 DUP3 PUSH2 0x100 JUMP JUMPDEST PUSH0 DUP3 ADD SWAP1 POP SWAP2 SWAP1 POP JUMP JUMPDEST PUSH0 PUSH2 0x12D DUP3 PUSH2 0x103 JUMP JUMPDEST SWAP2 POP DUP2 SWAP1 POP SWAP2 SWAP1 POP JUMP JUMPDEST PUSH0 DUP3 DUP3 MSTORE PUSH1 0x20 DUP3 ADD SWAP1 POP SWAP3 SWAP2 POP POP JUMP JUMPDEST PUSH32 0x63616E27742073656E64206D6F6E657900000000000000000000000000000000 PUSH0 DUP3 ADD MSTORE POP JUMP JUMPDEST PUSH0 PUSH2 0x17B PUSH1 0x10 DUP4 PUSH2 0x137 JUMP JUMPDEST SWAP2 POP PUSH2 0x186 DUP3 PUSH2 0x147 JUMP JUMPDEST PUSH1 0x20 DUP3 ADD SWAP1 POP SWAP2 SWAP1 POP JUMP JUMPDEST PUSH0 PUSH1 0x20 DUP3 ADD SWAP1 POP DUP2 DUP2 SUB PUSH0 DUP4 ADD MSTORE PUSH2 0x1A8 DUP2 PUSH2 0x16F JUMP JUMPDEST SWAP1 POP SWAP2 SWAP1 POP JUMP INVALID LOG2 PUSH5 0x6970667358 0x22 SLT KECCAK256 0xCC DUP16 CALL PUSH18 0xB79D40208E784FE8E38E81D59DE3DC256438 PUSH0 0xD3 GAS SWAP2 0xC5 PUSH31 0xA3BF271664736F6C634300081A003300000000000000000000000000000000 "
				},
				"gasEstimates": {
					"creation": {
						"codeDepositCost": "97000",
						"executionCost": "infinite",
						"totalCost": "infinite"
					},
					"external": {
						"callReceive()": "infinite"
					}
				},
				"methodIdentifiers": {
					"callReceive()": "6fbac4b5"
				}
			},
			"storageLayout": {
				"storage": [
					{
						"astId": 3,
						"contract": "contracts/1_Storage.sol:MyContract",
						"label": "otherContract",
						"offset": 0,
						"slot": "0",
						"type": "t_address"
					}
				],
				"types": {
					"t_address": {
						"encoding": "inplace",
						"label": "address",
						"numberOfBytes": "20"
					}
				}
			},
			"userdoc": {
				"kind": "user",
				"methods": {},
				"version": 1
			}
		}
	}
}