{
	"contracts/MyContract.sol": {
		"AnotherContract": {
			"abi": [
				{
					"inputs": [
						{
							"internalType": "address",
							"name": "",
							"type": "address"
						}
					],
					"name": "balances",
					"outputs": [
						{
							"internalType": "uint256",
							"name": "",
							"type": "uint256"
						}
					],
					"stateMutability": "view",
					"type": "function"
				},
				{
					"inputs": [],
					"name": "name",
					"outputs": [
						{
							"internalType": "string",
							"name": "",
							"type": "string"
						}
					],
					"stateMutability": "view",
					"type": "function"
				},
				{
					"inputs": [
						{
							"internalType": "string",
							"name": "_name",
							"type": "string"
						}
					],
					"name": "setName",
					"outputs": [
						{
							"internalType": "bool",
							"name": "",
							"type": "bool"
						}
					],
					"stateMutability": "nonpayable",
					"type": "function"
				}
			],
			"devdoc": {
				"kind": "dev",
				"methods": {},
				"version": 1
			},
			"evm": {
				"assembly": "    /* \"contracts/MyContract.sol\":611:832  contract AnotherContract {... */\n  mstore(0x40, 0x80)\n  callvalue\n  dup1\n  iszero\n  tag_1\n  jumpi\n  0x00\n  dup1\n  revert\ntag_1:\n  pop\n  dataSize(sub_0)\n  dup1\n  dataOffset(sub_0)\n  0x00\n  codecopy\n  0x00\n  return\nstop\n\nsub_0: assembly {\n        /* \"contracts/MyContract.sol\":611:832  contract AnotherContract {... */\n      mstore(0x40, 0x80)\n      callvalue\n      dup1\n      iszero\n      tag_1\n      jumpi\n      0x00\n      dup1\n      revert\n    tag_1:\n      pop\n      jumpi(tag_2, lt(calldatasize, 0x04))\n      shr(0xe0, calldataload(0x00))\n      dup1\n      0x06fdde03\n      eq\n      tag_3\n      jumpi\n      dup1\n      0x27e235e3\n      eq\n      tag_4\n      jumpi\n      dup1\n      0xc47f0027\n      eq\n      tag_5\n      jumpi\n    tag_2:\n      0x00\n      dup1\n      revert\n        /* \"contracts/MyContract.sol\":642:660  string public name */\n    tag_3:\n      tag_6\n      tag_7\n      jump\t// in\n    tag_6:\n      mload(0x40)\n      tag_8\n      swap2\n      swap1\n      tag_9\n      jump\t// in\n    tag_8:\n      mload(0x40)\n      dup1\n      swap2\n      sub\n      swap1\n      return\n        /* \"contracts/MyContract.sol\":666:709  mapping(address => uint256) public balances */\n    tag_4:\n      tag_10\n      0x04\n      dup1\n      calldatasize\n      sub\n      dup2\n      add\n      swap1\n      tag_11\n      swap2\n      swap1\n      tag_12\n      jump\t// in\n    tag_11:\n      tag_13\n      jump\t// in\n    tag_10:\n      mload(0x40)\n      tag_14\n      swap2\n      swap1\n      tag_15\n      jump\t// in\n    tag_14:\n      mload(0x40)\n      dup1\n      swap2\n      sub\n      swap1\n      return\n        /* \"contracts/MyContract.sol\":716:830  function setName(string calldata _name) external returns (bool) {... */\n    tag_5:\n      tag_16\n      0x04\n      dup1\n      calldatasize\n      sub\n      dup2\n      add\n      swap1\n      tag_17\n      swap2\n      swap1\n      tag_18\n      jump\t// in\n    tag_17:\n      tag_19\n      jump\t// in\n    tag_16:\n      mload(0x40)\n      tag_20\n      swap2\n      swap1\n      tag_21\n      jump\t// in\n    tag_20:\n      mload(0x40)\n      dup1\n      swap2\n      sub\n      swap1\n      return\n        /* \"contracts/MyContract.sol\":642:660  string public name */\n    tag_7:\n      0x00\n      dup1\n      sload\n      tag_22\n      swap1\n      tag_23\n      jump\t// in\n    tag_22:\n      dup1\n      0x1f\n      add\n      0x20\n      dup1\n      swap2\n      div\n      mul\n      0x20\n      add\n      mload(0x40)\n      swap1\n      dup2\n      add\n      0x40\n      mstore\n      dup1\n      swap3\n      swap2\n      swap1\n      dup2\n      dup2\n      mstore\n      0x20\n      add\n      dup3\n      dup1\n      sload\n      tag_24\n      swap1\n      tag_23\n      jump\t// in\n    tag_24:\n      dup1\n      iszero\n      tag_25\n      jumpi\n      dup1\n      0x1f\n      lt\n      tag_26\n      jumpi\n      0x0100\n      dup1\n      dup4\n      sload\n      div\n      mul\n      dup4\n      mstore\n      swap2\n      0x20\n      add\n      swap2\n      jump(tag_25)\n    tag_26:\n      dup3\n      add\n      swap2\n      swap1\n      0x00\n      mstore\n      keccak256(0x00, 0x20)\n      swap1\n    tag_27:\n      dup2\n      sload\n      dup2\n      mstore\n      swap1\n      0x01\n      add\n      swap1\n      0x20\n      add\n      dup1\n      dup4\n      gt\n      tag_27\n      jumpi\n      dup3\n      swap1\n      sub\n      0x1f\n      and\n      dup3\n      add\n      swap2\n    tag_25:\n      pop\n      pop\n      pop\n      pop\n      pop\n      dup2\n      jump\t// out\n        /* \"contracts/MyContract.sol\":666:709  mapping(address => uint256) public balances */\n    tag_13:\n      mstore(0x20, 0x01)\n      dup1\n      0x00\n      mstore\n      keccak256(0x00, 0x40)\n      0x00\n      swap2\n      pop\n      swap1\n      pop\n      sload\n      dup2\n      jump\t// out\n        /* \"contracts/MyContract.sol\":716:830  function setName(string calldata _name) external returns (bool) {... */\n    tag_19:\n        /* \"contracts/MyContract.sol\":774:778  bool */\n      0x00\n        /* \"contracts/MyContract.sol\":797:802  _name */\n      dup3\n      dup3\n        /* \"contracts/MyContract.sol\":790:794  name */\n      0x00\n        /* \"contracts/MyContract.sol\":790:802  name = _name */\n      swap2\n      dup3\n      tag_29\n      swap3\n      swap2\n      swap1\n      tag_30\n      jump\t// in\n    tag_29:\n      pop\n        /* \"contracts/MyContract.sol\":819:823  true */\n      0x01\n        /* \"contracts/MyContract.sol\":812:823  return true */\n      swap1\n      pop\n        /* \"contracts/MyContract.sol\":716:830  function setName(string calldata _name) external returns (bool) {... */\n      swap3\n      swap2\n      pop\n      pop\n      jump\t// out\n        /* \"#utility.yul\":7:106   */\n    tag_31:\n        /* \"#utility.yul\":59:65   */\n      0x00\n        /* \"#utility.yul\":93:98   */\n      dup2\n        /* \"#utility.yul\":87:99   */\n      mload\n        /* \"#utility.yul\":77:99   */\n      swap1\n      pop\n        /* \"#utility.yul\":7:106   */\n      swap2\n      swap1\n      pop\n      jump\t// out\n        /* \"#utility.yul\":112:281   */\n    tag_32:\n        /* \"#utility.yul\":196:207   */\n      0x00\n        /* \"#utility.yul\":230:236   */\n      dup3\n        /* \"#utility.yul\":225:228   */\n      dup3\n        /* \"#utility.yul\":218:237   */\n      mstore\n        /* \"#utility.yul\":270:274   */\n      0x20\n        /* \"#utility.yul\":265:268   */\n      dup3\n        /* \"#utility.yul\":261:275   */\n      add\n        /* \"#utility.yul\":246:275   */\n      swap1\n      pop\n        /* \"#utility.yul\":112:281   */\n      swap3\n      swap2\n      pop\n      pop\n      jump\t// out\n        /* \"#utility.yul\":287:426   */\n    tag_33:\n        /* \"#utility.yul\":376:382   */\n      dup3\n        /* \"#utility.yul\":371:374   */\n      dup2\n        /* \"#utility.yul\":366:369   */\n      dup4\n        /* \"#utility.yul\":360:383   */\n      mcopy\n        /* \"#utility.yul\":417:418   */\n      0x00\n        /* \"#utility.yul\":408:414   */\n      dup4\n        /* \"#utility.yul\":403:406   */\n      dup4\n        /* \"#utility.yul\":399:415   */\n      add\n        /* \"#utility.yul\":392:419   */\n      mstore\n        /* \"#utility.yul\":287:426   */\n      pop\n      pop\n      pop\n      jump\t// out\n        /* \"#utility.yul\":432:534   */\n    tag_34:\n        /* \"#utility.yul\":473:479   */\n      0x00\n        /* \"#utility.yul\":524:526   */\n      0x1f\n        /* \"#utility.yul\":520:527   */\n      not\n        /* \"#utility.yul\":515:517   */\n      0x1f\n        /* \"#utility.yul\":508:513   */\n      dup4\n        /* \"#utility.yul\":504:518   */\n      add\n        /* \"#utility.yul\":500:528   */\n      and\n        /* \"#utility.yul\":490:528   */\n      swap1\n      pop\n        /* \"#utility.yul\":432:534   */\n      swap2\n      swap1\n      pop\n      jump\t// out\n        /* \"#utility.yul\":540:917   */\n    tag_35:\n        /* \"#utility.yul\":628:631   */\n      0x00\n        /* \"#utility.yul\":656:695   */\n      tag_75\n        /* \"#utility.yul\":689:694   */\n      dup3\n        /* \"#utility.yul\":656:695   */\n      tag_31\n      jump\t// in\n    tag_75:\n        /* \"#utility.yul\":711:782   */\n      tag_76\n        /* \"#utility.yul\":775:781   */\n      dup2\n        /* \"#utility.yul\":770:773   */\n      dup6\n        /* \"#utility.yul\":711:782   */\n      tag_32\n      jump\t// in\n    tag_76:\n        /* \"#utility.yul\":704:782   */\n      swap4\n      pop\n        /* \"#utility.yul\":791:856   */\n      tag_77\n        /* \"#utility.yul\":849:855   */\n      dup2\n        /* \"#utility.yul\":844:847   */\n      dup6\n        /* \"#utility.yul\":837:841   */\n      0x20\n        /* \"#utility.yul\":830:835   */\n      dup7\n        /* \"#utility.yul\":826:842   */\n      add\n        /* \"#utility.yul\":791:856   */\n      tag_33\n      jump\t// in\n    tag_77:\n        /* \"#utility.yul\":881:910   */\n      tag_78\n        /* \"#utility.yul\":903:909   */\n      dup2\n        /* \"#utility.yul\":881:910   */\n      tag_34\n      jump\t// in\n    tag_78:\n        /* \"#utility.yul\":876:879   */\n      dup5\n        /* \"#utility.yul\":872:911   */\n      add\n        /* \"#utility.yul\":865:911   */\n      swap2\n      pop\n        /* \"#utility.yul\":632:917   */\n      pop\n        /* \"#utility.yul\":540:917   */\n      swap3\n      swap2\n      pop\n      pop\n      jump\t// out\n        /* \"#utility.yul\":923:1236   */\n    tag_9:\n        /* \"#utility.yul\":1036:1040   */\n      0x00\n        /* \"#utility.yul\":1074:1076   */\n      0x20\n        /* \"#utility.yul\":1063:1072   */\n      dup3\n        /* \"#utility.yul\":1059:1077   */\n      add\n        /* \"#utility.yul\":1051:1077   */\n      swap1\n      pop\n        /* \"#utility.yul\":1123:1132   */\n      dup2\n        /* \"#utility.yul\":1117:1121   */\n      dup2\n        /* \"#utility.yul\":1113:1133   */\n      sub\n        /* \"#utility.yul\":1109:1110   */\n      0x00\n        /* \"#utility.yul\":1098:1107   */\n      dup4\n        /* \"#utility.yul\":1094:1111   */\n      add\n        /* \"#utility.yul\":1087:1134   */\n      mstore\n        /* \"#utility.yul\":1151:1229   */\n      tag_80\n        /* \"#utility.yul\":1224:1228   */\n      dup2\n        /* \"#utility.yul\":1215:1221   */\n      dup5\n        /* \"#utility.yul\":1151:1229   */\n      tag_35\n      jump\t// in\n    tag_80:\n        /* \"#utility.yul\":1143:1229   */\n      swap1\n      pop\n        /* \"#utility.yul\":923:1236   */\n      swap3\n      swap2\n      pop\n      pop\n      jump\t// out\n        /* \"#utility.yul\":1323:1440   */\n    tag_37:\n        /* \"#utility.yul\":1432:1433   */\n      0x00\n        /* \"#utility.yul\":1429:1430   */\n      dup1\n        /* \"#utility.yul\":1422:1434   */\n      revert\n        /* \"#utility.yul\":1446:1563   */\n    tag_38:\n        /* \"#utility.yul\":1555:1556   */\n      0x00\n        /* \"#utility.yul\":1552:1553   */\n      dup1\n        /* \"#utility.yul\":1545:1557   */\n      revert\n        /* \"#utility.yul\":1569:1695   */\n    tag_39:\n        /* \"#utility.yul\":1606:1613   */\n      0x00\n        /* \"#utility.yul\":1646:1688   */\n      0xffffffffffffffffffffffffffffffffffffffff\n        /* \"#utility.yul\":1639:1644   */\n      dup3\n        /* \"#utility.yul\":1635:1689   */\n      and\n        /* \"#utility.yul\":1624:1689   */\n      swap1\n      pop\n        /* \"#utility.yul\":1569:1695   */\n      swap2\n      swap1\n      pop\n      jump\t// out\n        /* \"#utility.yul\":1701:1797   */\n    tag_40:\n        /* \"#utility.yul\":1738:1745   */\n      0x00\n        /* \"#utility.yul\":1767:1791   */\n      tag_86\n        /* \"#utility.yul\":1785:1790   */\n      dup3\n        /* \"#utility.yul\":1767:1791   */\n      tag_39\n      jump\t// in\n    tag_86:\n        /* \"#utility.yul\":1756:1791   */\n      swap1\n      pop\n        /* \"#utility.yul\":1701:1797   */\n      swap2\n      swap1\n      pop\n      jump\t// out\n        /* \"#utility.yul\":1803:1925   */\n    tag_41:\n        /* \"#utility.yul\":1876:1900   */\n      tag_88\n        /* \"#utility.yul\":1894:1899   */\n      dup2\n        /* \"#utility.yul\":1876:1900   */\n      tag_40\n      jump\t// in\n    tag_88:\n        /* \"#utility.yul\":1869:1874   */\n      dup2\n        /* \"#utility.yul\":1866:1901   */\n      eq\n        /* \"#utility.yul\":1856:1919   */\n      tag_89\n      jumpi\n        /* \"#utility.yul\":1915:1916   */\n      0x00\n        /* \"#utility.yul\":1912:1913   */\n      dup1\n        /* \"#utility.yul\":1905:1917   */\n      revert\n        /* \"#utility.yul\":1856:1919   */\n    tag_89:\n        /* \"#utility.yul\":1803:1925   */\n      pop\n      jump\t// out\n        /* \"#utility.yul\":1931:2070   */\n    tag_42:\n        /* \"#utility.yul\":1977:1982   */\n      0x00\n        /* \"#utility.yul\":2015:2021   */\n      dup2\n        /* \"#utility.yul\":2002:2022   */\n      calldataload\n        /* \"#utility.yul\":1993:2022   */\n      swap1\n      pop\n        /* \"#utility.yul\":2031:2064   */\n      tag_91\n        /* \"#utility.yul\":2058:2063   */\n      dup2\n        /* \"#utility.yul\":2031:2064   */\n      tag_41\n      jump\t// in\n    tag_91:\n        /* \"#utility.yul\":1931:2070   */\n      swap3\n      swap2\n      pop\n      pop\n      jump\t// out\n        /* \"#utility.yul\":2076:2405   */\n    tag_12:\n        /* \"#utility.yul\":2135:2141   */\n      0x00\n        /* \"#utility.yul\":2184:2186   */\n      0x20\n        /* \"#utility.yul\":2172:2181   */\n      dup3\n        /* \"#utility.yul\":2163:2170   */\n      dup5\n        /* \"#utility.yul\":2159:2182   */\n      sub\n        /* \"#utility.yul\":2155:2187   */\n      slt\n        /* \"#utility.yul\":2152:2271   */\n      iszero\n      tag_93\n      jumpi\n        /* \"#utility.yul\":2190:2269   */\n      tag_94\n      tag_37\n      jump\t// in\n    tag_94:\n        /* \"#utility.yul\":2152:2271   */\n    tag_93:\n        /* \"#utility.yul\":2310:2311   */\n      0x00\n        /* \"#utility.yul\":2335:2388   */\n      tag_95\n        /* \"#utility.yul\":2380:2387   */\n      dup5\n        /* \"#utility.yul\":2371:2377   */\n      dup3\n        /* \"#utility.yul\":2360:2369   */\n      dup6\n        /* \"#utility.yul\":2356:2378   */\n      add\n        /* \"#utility.yul\":2335:2388   */\n      tag_42\n      jump\t// in\n    tag_95:\n        /* \"#utility.yul\":2325:2388   */\n      swap2\n      pop\n        /* \"#utility.yul\":2281:2398   */\n      pop\n        /* \"#utility.yul\":2076:2405   */\n      swap3\n      swap2\n      pop\n      pop\n      jump\t// out\n        /* \"#utility.yul\":2411:2488   */\n    tag_43:\n        /* \"#utility.yul\":2448:2455   */\n      0x00\n        /* \"#utility.yul\":2477:2482   */\n      dup2\n        /* \"#utility.yul\":2466:2482   */\n      swap1\n      pop\n        /* \"#utility.yul\":2411:2488   */\n      swap2\n      swap1\n      pop\n      jump\t// out\n        /* \"#utility.yul\":2494:2612   */\n    tag_44:\n        /* \"#utility.yul\":2581:2605   */\n      tag_98\n        /* \"#utility.yul\":2599:2604   */\n      dup2\n        /* \"#utility.yul\":2581:2605   */\n      tag_43\n      jump\t// in\n    tag_98:\n        /* \"#utility.yul\":2576:2579   */\n      dup3\n        /* \"#utility.yul\":2569:2606   */\n      mstore\n        /* \"#utility.yul\":2494:2612   */\n      pop\n      pop\n      jump\t// out\n        /* \"#utility.yul\":2618:2840   */\n    tag_15:\n        /* \"#utility.yul\":2711:2715   */\n      0x00\n        /* \"#utility.yul\":2749:2751   */\n      0x20\n        /* \"#utility.yul\":2738:2747   */\n      dup3\n        /* \"#utility.yul\":2734:2752   */\n      add\n        /* \"#utility.yul\":2726:2752   */\n      swap1\n      pop\n        /* \"#utility.yul\":2762:2833   */\n      tag_100\n        /* \"#utility.yul\":2830:2831   */\n      0x00\n        /* \"#utility.yul\":2819:2828   */\n      dup4\n        /* \"#utility.yul\":2815:2832   */\n      add\n        /* \"#utility.yul\":2806:2812   */\n      dup5\n        /* \"#utility.yul\":2762:2833   */\n      tag_44\n      jump\t// in\n    tag_100:\n        /* \"#utility.yul\":2618:2840   */\n      swap3\n      swap2\n      pop\n      pop\n      jump\t// out\n        /* \"#utility.yul\":2846:2963   */\n    tag_45:\n        /* \"#utility.yul\":2955:2956   */\n      0x00\n        /* \"#utility.yul\":2952:2953   */\n      dup1\n        /* \"#utility.yul\":2945:2957   */\n      revert\n        /* \"#utility.yul\":2969:3086   */\n    tag_46:\n        /* \"#utility.yul\":3078:3079   */\n      0x00\n        /* \"#utility.yul\":3075:3076   */\n      dup1\n        /* \"#utility.yul\":3068:3080   */\n      revert\n        /* \"#utility.yul\":3092:3209   */\n    tag_47:\n        /* \"#utility.yul\":3201:3202   */\n      0x00\n        /* \"#utility.yul\":3198:3199   */\n      dup1\n        /* \"#utility.yul\":3191:3203   */\n      revert\n        /* \"#utility.yul\":3229:3782   */\n    tag_48:\n        /* \"#utility.yul\":3287:3295   */\n      0x00\n        /* \"#utility.yul\":3297:3303   */\n      dup1\n        /* \"#utility.yul\":3347:3350   */\n      dup4\n        /* \"#utility.yul\":3340:3344   */\n      0x1f\n        /* \"#utility.yul\":3332:3338   */\n      dup5\n        /* \"#utility.yul\":3328:3345   */\n      add\n        /* \"#utility.yul\":3324:3351   */\n      slt\n        /* \"#utility.yul\":3314:3436   */\n      tag_105\n      jumpi\n        /* \"#utility.yul\":3355:3434   */\n      tag_106\n      tag_45\n      jump\t// in\n    tag_106:\n        /* \"#utility.yul\":3314:3436   */\n    tag_105:\n        /* \"#utility.yul\":3468:3474   */\n      dup3\n        /* \"#utility.yul\":3455:3475   */\n      calldataload\n        /* \"#utility.yul\":3445:3475   */\n      swap1\n      pop\n        /* \"#utility.yul\":3498:3516   */\n      0xffffffffffffffff\n        /* \"#utility.yul\":3490:3496   */\n      dup2\n        /* \"#utility.yul\":3487:3517   */\n      gt\n        /* \"#utility.yul\":3484:3601   */\n      iszero\n      tag_107\n      jumpi\n        /* \"#utility.yul\":3520:3599   */\n      tag_108\n      tag_46\n      jump\t// in\n    tag_108:\n        /* \"#utility.yul\":3484:3601   */\n    tag_107:\n        /* \"#utility.yul\":3634:3638   */\n      0x20\n        /* \"#utility.yul\":3626:3632   */\n      dup4\n        /* \"#utility.yul\":3622:3639   */\n      add\n        /* \"#utility.yul\":3610:3639   */\n      swap2\n      pop\n        /* \"#utility.yul\":3688:3691   */\n      dup4\n        /* \"#utility.yul\":3680:3684   */\n      0x01\n        /* \"#utility.yul\":3672:3678   */\n      dup3\n        /* \"#utility.yul\":3668:3685   */\n      mul\n        /* \"#utility.yul\":3658:3666   */\n      dup4\n        /* \"#utility.yul\":3654:3686   */\n      add\n        /* \"#utility.yul\":3651:3692   */\n      gt\n        /* \"#utility.yul\":3648:3776   */\n      iszero\n      tag_109\n      jumpi\n        /* \"#utility.yul\":3695:3774   */\n      tag_110\n      tag_47\n      jump\t// in\n    tag_110:\n        /* \"#utility.yul\":3648:3776   */\n    tag_109:\n        /* \"#utility.yul\":3229:3782   */\n      swap3\n      pop\n      swap3\n      swap1\n      pop\n      jump\t// out\n        /* \"#utility.yul\":3788:4317   */\n    tag_18:\n        /* \"#utility.yul\":3859:3865   */\n      0x00\n        /* \"#utility.yul\":3867:3873   */\n      dup1\n        /* \"#utility.yul\":3916:3918   */\n      0x20\n        /* \"#utility.yul\":3904:3913   */\n      dup4\n        /* \"#utility.yul\":3895:3902   */\n      dup6\n        /* \"#utility.yul\":3891:3914   */\n      sub\n        /* \"#utility.yul\":3887:3919   */\n      slt\n        /* \"#utility.yul\":3884:4003   */\n      iszero\n      tag_112\n      jumpi\n        /* \"#utility.yul\":3922:4001   */\n      tag_113\n      tag_37\n      jump\t// in\n    tag_113:\n        /* \"#utility.yul\":3884:4003   */\n    tag_112:\n        /* \"#utility.yul\":4070:4071   */\n      0x00\n        /* \"#utility.yul\":4059:4068   */\n      dup4\n        /* \"#utility.yul\":4055:4072   */\n      add\n        /* \"#utility.yul\":4042:4073   */\n      calldataload\n        /* \"#utility.yul\":4100:4118   */\n      0xffffffffffffffff\n        /* \"#utility.yul\":4092:4098   */\n      dup2\n        /* \"#utility.yul\":4089:4119   */\n      gt\n        /* \"#utility.yul\":4086:4203   */\n      iszero\n      tag_114\n      jumpi\n        /* \"#utility.yul\":4122:4201   */\n      tag_115\n      tag_38\n      jump\t// in\n    tag_115:\n        /* \"#utility.yul\":4086:4203   */\n    tag_114:\n        /* \"#utility.yul\":4235:4300   */\n      tag_116\n        /* \"#utility.yul\":4292:4299   */\n      dup6\n        /* \"#utility.yul\":4283:4289   */\n      dup3\n        /* \"#utility.yul\":4272:4281   */\n      dup7\n        /* \"#utility.yul\":4268:4290   */\n      add\n        /* \"#utility.yul\":4235:4300   */\n      tag_48\n      jump\t// in\n    tag_116:\n        /* \"#utility.yul\":4217:4300   */\n      swap3\n      pop\n      swap3\n      pop\n        /* \"#utility.yul\":4013:4310   */\n      pop\n        /* \"#utility.yul\":3788:4317   */\n      swap3\n      pop\n      swap3\n      swap1\n      pop\n      jump\t// out\n        /* \"#utility.yul\":4323:4413   */\n    tag_49:\n        /* \"#utility.yul\":4357:4364   */\n      0x00\n        /* \"#utility.yul\":4400:4405   */\n      dup2\n        /* \"#utility.yul\":4393:4406   */\n      iszero\n        /* \"#utility.yul\":4386:4407   */\n      iszero\n        /* \"#utility.yul\":4375:4407   */\n      swap1\n      pop\n        /* \"#utility.yul\":4323:4413   */\n      swap2\n      swap1\n      pop\n      jump\t// out\n        /* \"#utility.yul\":4419:4528   */\n    tag_50:\n        /* \"#utility.yul\":4500:4521   */\n      tag_119\n        /* \"#utility.yul\":4515:4520   */\n      dup2\n        /* \"#utility.yul\":4500:4521   */\n      tag_49\n      jump\t// in\n    tag_119:\n        /* \"#utility.yul\":4495:4498   */\n      dup3\n        /* \"#utility.yul\":4488:4522   */\n      mstore\n        /* \"#utility.yul\":4419:4528   */\n      pop\n      pop\n      jump\t// out\n        /* \"#utility.yul\":4534:4744   */\n    tag_21:\n        /* \"#utility.yul\":4621:4625   */\n      0x00\n        /* \"#utility.yul\":4659:4661   */\n      0x20\n        /* \"#utility.yul\":4648:4657   */\n      dup3\n        /* \"#utility.yul\":4644:4662   */\n      add\n        /* \"#utility.yul\":4636:4662   */\n      swap1\n      pop\n        /* \"#utility.yul\":4672:4737   */\n      tag_121\n        /* \"#utility.yul\":4734:4735   */\n      0x00\n        /* \"#utility.yul\":4723:4732   */\n      dup4\n        /* \"#utility.yul\":4719:4736   */\n      add\n        /* \"#utility.yul\":4710:4716   */\n      dup5\n        /* \"#utility.yul\":4672:4737   */\n      tag_50\n      jump\t// in\n    tag_121:\n        /* \"#utility.yul\":4534:4744   */\n      swap3\n      swap2\n      pop\n      pop\n      jump\t// out\n        /* \"#utility.yul\":4750:4930   */\n    tag_51:\n        /* \"#utility.yul\":4798:4875   */\n      0x4e487b7100000000000000000000000000000000000000000000000000000000\n        /* \"#utility.yul\":4795:4796   */\n      0x00\n        /* \"#utility.yul\":4788:4876   */\n      mstore\n        /* \"#utility.yul\":4895:4899   */\n      0x22\n        /* \"#utility.yul\":4892:4893   */\n      0x04\n        /* \"#utility.yul\":4885:4900   */\n      mstore\n        /* \"#utility.yul\":4919:4923   */\n      0x24\n        /* \"#utility.yul\":4916:4917   */\n      0x00\n        /* \"#utility.yul\":4909:4924   */\n      revert\n        /* \"#utility.yul\":4936:5256   */\n    tag_23:\n        /* \"#utility.yul\":4980:4986   */\n      0x00\n        /* \"#utility.yul\":5017:5018   */\n      0x02\n        /* \"#utility.yul\":5011:5015   */\n      dup3\n        /* \"#utility.yul\":5007:5019   */\n      div\n        /* \"#utility.yul\":4997:5019   */\n      swap1\n      pop\n        /* \"#utility.yul\":5064:5065   */\n      0x01\n        /* \"#utility.yul\":5058:5062   */\n      dup3\n        /* \"#utility.yul\":5054:5066   */\n      and\n        /* \"#utility.yul\":5085:5103   */\n      dup1\n        /* \"#utility.yul\":5075:5156   */\n      tag_124\n      jumpi\n        /* \"#utility.yul\":5141:5145   */\n      0x7f\n        /* \"#utility.yul\":5133:5139   */\n      dup3\n        /* \"#utility.yul\":5129:5146   */\n      and\n        /* \"#utility.yul\":5119:5146   */\n      swap2\n      pop\n        /* \"#utility.yul\":5075:5156   */\n    tag_124:\n        /* \"#utility.yul\":5203:5205   */\n      0x20\n        /* \"#utility.yul\":5195:5201   */\n      dup3\n        /* \"#utility.yul\":5192:5206   */\n      lt\n        /* \"#utility.yul\":5172:5190   */\n      dup2\n        /* \"#utility.yul\":5169:5207   */\n      sub\n        /* \"#utility.yul\":5166:5250   */\n      tag_125\n      jumpi\n        /* \"#utility.yul\":5222:5240   */\n      tag_126\n      tag_51\n      jump\t// in\n    tag_126:\n        /* \"#utility.yul\":5166:5250   */\n    tag_125:\n        /* \"#utility.yul\":4987:5256   */\n      pop\n        /* \"#utility.yul\":4936:5256   */\n      swap2\n      swap1\n      pop\n      jump\t// out\n        /* \"#utility.yul\":5262:5359   */\n    tag_52:\n        /* \"#utility.yul\":5321:5327   */\n      0x00\n        /* \"#utility.yul\":5349:5352   */\n      dup3\n        /* \"#utility.yul\":5339:5352   */\n      swap1\n      pop\n        /* \"#utility.yul\":5262:5359   */\n      swap3\n      swap2\n      pop\n      pop\n      jump\t// out\n        /* \"#utility.yul\":5365:5545   */\n    tag_53:\n        /* \"#utility.yul\":5413:5490   */\n      0x4e487b7100000000000000000000000000000000000000000000000000000000\n        /* \"#utility.yul\":5410:5411   */\n      0x00\n        /* \"#utility.yul\":5403:5491   */\n      mstore\n        /* \"#utility.yul\":5510:5514   */\n      0x41\n        /* \"#utility.yul\":5507:5508   */\n      0x04\n        /* \"#utility.yul\":5500:5515   */\n      mstore\n        /* \"#utility.yul\":5534:5538   */\n      0x24\n        /* \"#utility.yul\":5531:5532   */\n      0x00\n        /* \"#utility.yul\":5524:5539   */\n      revert\n        /* \"#utility.yul\":5551:5692   */\n    tag_54:\n        /* \"#utility.yul\":5600:5604   */\n      0x00\n        /* \"#utility.yul\":5623:5626   */\n      dup2\n        /* \"#utility.yul\":5615:5626   */\n      swap1\n      pop\n        /* \"#utility.yul\":5646:5649   */\n      dup2\n        /* \"#utility.yul\":5643:5644   */\n      0x00\n        /* \"#utility.yul\":5636:5650   */\n      mstore\n        /* \"#utility.yul\":5680:5684   */\n      0x20\n        /* \"#utility.yul\":5677:5678   */\n      0x00\n        /* \"#utility.yul\":5667:5685   */\n      keccak256\n        /* \"#utility.yul\":5659:5685   */\n      swap1\n      pop\n        /* \"#utility.yul\":5551:5692   */\n      swap2\n      swap1\n      pop\n      jump\t// out\n        /* \"#utility.yul\":5698:5791   */\n    tag_55:\n        /* \"#utility.yul\":5735:5741   */\n      0x00\n        /* \"#utility.yul\":5782:5784   */\n      0x20\n        /* \"#utility.yul\":5777:5779   */\n      0x1f\n        /* \"#utility.yul\":5770:5775   */\n      dup4\n        /* \"#utility.yul\":5766:5780   */\n      add\n        /* \"#utility.yul\":5762:5785   */\n      div\n        /* \"#utility.yul\":5752:5785   */\n      swap1\n      pop\n        /* \"#utility.yul\":5698:5791   */\n      swap2\n      swap1\n      pop\n      jump\t// out\n        /* \"#utility.yul\":5797:5904   */\n    tag_56:\n        /* \"#utility.yul\":5841:5849   */\n      0x00\n        /* \"#utility.yul\":5891:5896   */\n      dup3\n        /* \"#utility.yul\":5885:5889   */\n      dup3\n        /* \"#utility.yul\":5881:5897   */\n      shl\n        /* \"#utility.yul\":5860:5897   */\n      swap1\n      pop\n        /* \"#utility.yul\":5797:5904   */\n      swap3\n      swap2\n      pop\n      pop\n      jump\t// out\n        /* \"#utility.yul\":5910:6303   */\n    tag_57:\n        /* \"#utility.yul\":5979:5985   */\n      0x00\n        /* \"#utility.yul\":6029:6030   */\n      0x08\n        /* \"#utility.yul\":6017:6027   */\n      dup4\n        /* \"#utility.yul\":6013:6031   */\n      mul\n        /* \"#utility.yul\":6052:6149   */\n      tag_133\n        /* \"#utility.yul\":6082:6148   */\n      0xffffffffffffffffffffffffffffffffffffffffffffffffffffffffffffffff\n        /* \"#utility.yul\":6071:6080   */\n      dup3\n        /* \"#utility.yul\":6052:6149   */\n      tag_56\n      jump\t// in\n    tag_133:\n        /* \"#utility.yul\":6170:6209   */\n      tag_134\n        /* \"#utility.yul\":6200:6208   */\n      dup7\n        /* \"#utility.yul\":6189:6198   */\n      dup4\n        /* \"#utility.yul\":6170:6209   */\n      tag_56\n      jump\t// in\n    tag_134:\n        /* \"#utility.yul\":6158:6209   */\n      swap6\n      pop\n        /* \"#utility.yul\":6242:6246   */\n      dup1\n        /* \"#utility.yul\":6238:6247   */\n      not\n        /* \"#utility.yul\":6231:6236   */\n      dup5\n        /* \"#utility.yul\":6227:6248   */\n      and\n        /* \"#utility.yul\":6218:6248   */\n      swap4\n      pop\n        /* \"#utility.yul\":6291:6295   */\n      dup1\n        /* \"#utility.yul\":6281:6289   */\n      dup7\n        /* \"#utility.yul\":6277:6296   */\n      and\n        /* \"#utility.yul\":6270:6275   */\n      dup5\n        /* \"#utility.yul\":6267:6297   */\n      or\n        /* \"#utility.yul\":6257:6297   */\n      swap3\n      pop\n        /* \"#utility.yul\":5986:6303   */\n      pop\n      pop\n        /* \"#utility.yul\":5910:6303   */\n      swap4\n      swap3\n      pop\n      pop\n      pop\n      jump\t// out\n        /* \"#utility.yul\":6309:6369   */\n    tag_58:\n        /* \"#utility.yul\":6337:6340   */\n      0x00\n        /* \"#utility.yul\":6358:6363   */\n      dup2\n        /* \"#utility.yul\":6351:6363   */\n      swap1\n      pop\n        /* \"#utility.yul\":6309:6369   */\n      swap2\n      swap1\n      pop\n      jump\t// out\n        /* \"#utility.yul\":6375:6517   */\n    tag_59:\n        /* \"#utility.yul\":6425:6434   */\n      0x00\n        /* \"#utility.yul\":6458:6511   */\n      tag_137\n        /* \"#utility.yul\":6476:6510   */\n      tag_138\n        /* \"#utility.yul\":6485:6509   */\n      tag_139\n        /* \"#utility.yul\":6503:6508   */\n      dup5\n        /* \"#utility.yul\":6485:6509   */\n      tag_43\n      jump\t// in\n    tag_139:\n        /* \"#utility.yul\":6476:6510   */\n      tag_58\n      jump\t// in\n    tag_138:\n        /* \"#utility.yul\":6458:6511   */\n      tag_43\n      jump\t// in\n    tag_137:\n        /* \"#utility.yul\":6445:6511   */\n      swap1\n      pop\n        /* \"#utility.yul\":6375:6517   */\n      swap2\n      swap1\n      pop\n      jump\t// out\n        /* \"#utility.yul\":6523:6598   */\n    tag_60:\n        /* \"#utility.yul\":6566:6569   */\n      0x00\n        /* \"#utility.yul\":6587:6592   */\n      dup2\n        /* \"#utility.yul\":6580:6592   */\n      swap1\n      pop\n        /* \"#utility.yul\":6523:6598   */\n      swap2\n      swap1\n      pop\n      jump\t// out\n        /* \"#utility.yul\":6604:6873   */\n    tag_61:\n        /* \"#utility.yul\":6714:6753   */\n      tag_142\n        /* \"#utility.yul\":6745:6752   */\n      dup4\n        /* \"#utility.yul\":6714:6753   */\n      tag_59\n      jump\t// in\n    tag_142:\n        /* \"#utility.yul\":6775:6866   */\n      tag_143\n        /* \"#utility.yul\":6824:6865   */\n      tag_144\n        /* \"#utility.yul\":6848:6864   */\n      dup3\n        /* \"#utility.yul\":6824:6865   */\n      tag_60\n      jump\t// in\n    tag_144:\n        /* \"#utility.yul\":6816:6822   */\n      dup5\n        /* \"#utility.yul\":6809:6813   */\n      dup5\n        /* \"#utility.yul\":6803:6814   */\n      sload\n        /* \"#utility.yul\":6775:6866   */\n      tag_57\n      jump\t// in\n    tag_143:\n        /* \"#utility.yul\":6769:6773   */\n      dup3\n        /* \"#utility.yul\":6762:6867   */\n      sstore\n        /* \"#utility.yul\":6680:6873   */\n      pop\n        /* \"#utility.yul\":6604:6873   */\n      pop\n      pop\n      pop\n      jump\t// out\n        /* \"#utility.yul\":6879:6952   */\n    tag_62:\n        /* \"#utility.yul\":6924:6927   */\n      0x00\n        /* \"#utility.yul\":6879:6952   */\n      swap1\n      jump\t// out\n        /* \"#utility.yul\":6958:7147   */\n    tag_63:\n        /* \"#utility.yul\":7035:7067   */\n      tag_147\n      tag_62\n      jump\t// in\n    tag_147:\n        /* \"#utility.yul\":7076:7141   */\n      tag_148\n        /* \"#utility.yul\":7134:7140   */\n      dup2\n        /* \"#utility.yul\":7126:7132   */\n      dup5\n        /* \"#utility.yul\":7120:7124   */\n      dup5\n        /* \"#utility.yul\":7076:7141   */\n      tag_61\n      jump\t// in\n    tag_148:\n        /* \"#utility.yul\":7011:7147   */\n      pop\n        /* \"#utility.yul\":6958:7147   */\n      pop\n      pop\n      jump\t// out\n        /* \"#utility.yul\":7153:7339   */\n    tag_64:\n        /* \"#utility.yul\":7213:7333   */\n    tag_150:\n        /* \"#utility.yul\":7230:7233   */\n      dup2\n        /* \"#utility.yul\":7223:7228   */\n      dup2\n        /* \"#utility.yul\":7220:7234   */\n      lt\n        /* \"#utility.yul\":7213:7333   */\n      iszero\n      tag_152\n      jumpi\n        /* \"#utility.yul\":7284:7323   */\n      tag_153\n        /* \"#utility.yul\":7321:7322   */\n      0x00\n        /* \"#utility.yul\":7314:7319   */\n      dup3\n        /* \"#utility.yul\":7284:7323   */\n      tag_63\n      jump\t// in\n    tag_153:\n        /* \"#utility.yul\":7257:7258   */\n      0x01\n        /* \"#utility.yul\":7250:7255   */\n      dup2\n        /* \"#utility.yul\":7246:7259   */\n      add\n        /* \"#utility.yul\":7237:7259   */\n      swap1\n      pop\n        /* \"#utility.yul\":7213:7333   */\n      jump(tag_150)\n    tag_152:\n        /* \"#utility.yul\":7153:7339   */\n      pop\n      pop\n      jump\t// out\n        /* \"#utility.yul\":7345:7888   */\n    tag_65:\n        /* \"#utility.yul\":7446:7448   */\n      0x1f\n        /* \"#utility.yul\":7441:7444   */\n      dup3\n        /* \"#utility.yul\":7438:7449   */\n      gt\n        /* \"#utility.yul\":7435:7881   */\n      iszero\n      tag_155\n      jumpi\n        /* \"#utility.yul\":7480:7518   */\n      tag_156\n        /* \"#utility.yul\":7512:7517   */\n      dup2\n        /* \"#utility.yul\":7480:7518   */\n      tag_54\n      jump\t// in\n    tag_156:\n        /* \"#utility.yul\":7564:7593   */\n      tag_157\n        /* \"#utility.yul\":7582:7592   */\n      dup5\n        /* \"#utility.yul\":7564:7593   */\n      tag_55\n      jump\t// in\n    tag_157:\n        /* \"#utility.yul\":7554:7562   */\n      dup2\n        /* \"#utility.yul\":7550:7594   */\n      add\n        /* \"#utility.yul\":7747:7749   */\n      0x20\n        /* \"#utility.yul\":7735:7745   */\n      dup6\n        /* \"#utility.yul\":7732:7750   */\n      lt\n        /* \"#utility.yul\":7729:7778   */\n      iszero\n      tag_158\n      jumpi\n        /* \"#utility.yul\":7768:7776   */\n      dup2\n        /* \"#utility.yul\":7753:7776   */\n      swap1\n      pop\n        /* \"#utility.yul\":7729:7778   */\n    tag_158:\n        /* \"#utility.yul\":7791:7871   */\n      tag_159\n        /* \"#utility.yul\":7847:7869   */\n      tag_160\n        /* \"#utility.yul\":7865:7868   */\n      dup6\n        /* \"#utility.yul\":7847:7869   */\n      tag_55\n      jump\t// in\n    tag_160:\n        /* \"#utility.yul\":7837:7845   */\n      dup4\n        /* \"#utility.yul\":7833:7870   */\n      add\n        /* \"#utility.yul\":7820:7831   */\n      dup3\n        /* \"#utility.yul\":7791:7871   */\n      tag_64\n      jump\t// in\n    tag_159:\n        /* \"#utility.yul\":7450:7881   */\n      pop\n      pop\n        /* \"#utility.yul\":7435:7881   */\n    tag_155:\n        /* \"#utility.yul\":7345:7888   */\n      pop\n      pop\n      pop\n      jump\t// out\n        /* \"#utility.yul\":7894:8011   */\n    tag_66:\n        /* \"#utility.yul\":7948:7956   */\n      0x00\n        /* \"#utility.yul\":7998:8003   */\n      dup3\n        /* \"#utility.yul\":7992:7996   */\n      dup3\n        /* \"#utility.yul\":7988:8004   */\n      shr\n        /* \"#utility.yul\":7967:8004   */\n      swap1\n      pop\n        /* \"#utility.yul\":7894:8011   */\n      swap3\n      swap2\n      pop\n      pop\n      jump\t// out\n        /* \"#utility.yul\":8017:8186   */\n    tag_67:\n        /* \"#utility.yul\":8061:8067   */\n      0x00\n        /* \"#utility.yul\":8094:8145   */\n      tag_163\n        /* \"#utility.yul\":8142:8143   */\n      0x00\n        /* \"#utility.yul\":8138:8144   */\n      not\n        /* \"#utility.yul\":8130:8135   */\n      dup5\n        /* \"#utility.yul\":8127:8128   */\n      0x08\n        /* \"#utility.yul\":8123:8136   */\n      mul\n        /* \"#utility.yul\":8094:8145   */\n      tag_66\n      jump\t// in\n    tag_163:\n        /* \"#utility.yul\":8090:8146   */\n      not\n        /* \"#utility.yul\":8175:8179   */\n      dup1\n        /* \"#utility.yul\":8169:8173   */\n      dup4\n        /* \"#utility.yul\":8165:8180   */\n      and\n        /* \"#utility.yul\":8155:8180   */\n      swap2\n      pop\n        /* \"#utility.yul\":8068:8186   */\n      pop\n        /* \"#utility.yul\":8017:8186   */\n      swap3\n      swap2\n      pop\n      pop\n      jump\t// out\n        /* \"#utility.yul\":8191:8486   */\n    tag_68:\n        /* \"#utility.yul\":8267:8271   */\n      0x00\n        /* \"#utility.yul\":8413:8442   */\n      tag_165\n        /* \"#utility.yul\":8438:8441   */\n      dup4\n        /* \"#utility.yul\":8432:8436   */\n      dup4\n        /* \"#utility.yul\":8413:8442   */\n      tag_67\n      jump\t// in\n    tag_165:\n        /* \"#utility.yul\":8405:8442   */\n      swap2\n      pop\n        /* \"#utility.yul\":8475:8478   */\n      dup3\n        /* \"#utility.yul\":8472:8473   */\n      0x02\n        /* \"#utility.yul\":8468:8479   */\n      mul\n        /* \"#utility.yul\":8462:8466   */\n      dup3\n        /* \"#utility.yul\":8459:8480   */\n      or\n        /* \"#utility.yul\":8451:8480   */\n      swap1\n      pop\n        /* \"#utility.yul\":8191:8486   */\n      swap3\n      swap2\n      pop\n      pop\n      jump\t// out\n        /* \"#utility.yul\":8491:9894   */\n    tag_30:\n        /* \"#utility.yul\":8615:8659   */\n      tag_167\n        /* \"#utility.yul\":8655:8658   */\n      dup4\n        /* \"#utility.yul\":8650:8653   */\n      dup4\n        /* \"#utility.yul\":8615:8659   */\n      tag_52\n      jump\t// in\n    tag_167:\n        /* \"#utility.yul\":8724:8742   */\n      0xffffffffffffffff\n        /* \"#utility.yul\":8716:8722   */\n      dup2\n        /* \"#utility.yul\":8713:8743   */\n      gt\n        /* \"#utility.yul\":8710:8766   */\n      iszero\n      tag_168\n      jumpi\n        /* \"#utility.yul\":8746:8764   */\n      tag_169\n      tag_53\n      jump\t// in\n    tag_169:\n        /* \"#utility.yul\":8710:8766   */\n    tag_168:\n        /* \"#utility.yul\":8790:8828   */\n      tag_170\n        /* \"#utility.yul\":8822:8826   */\n      dup3\n        /* \"#utility.yul\":8816:8827   */\n      sload\n        /* \"#utility.yul\":8790:8828   */\n      tag_23\n      jump\t// in\n    tag_170:\n        /* \"#utility.yul\":8875:8942   */\n      tag_171\n        /* \"#utility.yul\":8935:8941   */\n      dup3\n        /* \"#utility.yul\":8927:8933   */\n      dup3\n        /* \"#utility.yul\":8921:8925   */\n      dup6\n        /* \"#utility.yul\":8875:8942   */\n      tag_65\n      jump\t// in\n    tag_171:\n        /* \"#utility.yul\":8969:8970   */\n      0x00\n        /* \"#utility.yul\":8998:9000   */\n      0x1f\n        /* \"#utility.yul\":8990:8996   */\n      dup4\n        /* \"#utility.yul\":8987:9001   */\n      gt\n        /* \"#utility.yul\":9015:9016   */\n      0x01\n        /* \"#utility.yul\":9010:9642   */\n      dup2\n      eq\n      tag_173\n      jumpi\n        /* \"#utility.yul\":9686:9687   */\n      0x00\n        /* \"#utility.yul\":9703:9709   */\n      dup5\n        /* \"#utility.yul\":9700:9784   */\n      iszero\n      tag_174\n      jumpi\n        /* \"#utility.yul\":9759:9768   */\n      dup3\n        /* \"#utility.yul\":9754:9757   */\n      dup8\n        /* \"#utility.yul\":9750:9769   */\n      add\n        /* \"#utility.yul\":9737:9770   */\n      calldataload\n        /* \"#utility.yul\":9728:9770   */\n      swap1\n      pop\n        /* \"#utility.yul\":9700:9784   */\n    tag_174:\n        /* \"#utility.yul\":9810:9877   */\n      tag_175\n        /* \"#utility.yul\":9870:9876   */\n      dup6\n        /* \"#utility.yul\":9863:9868   */\n      dup3\n        /* \"#utility.yul\":9810:9877   */\n      tag_68\n      jump\t// in\n    tag_175:\n        /* \"#utility.yul\":9804:9808   */\n      dup7\n        /* \"#utility.yul\":9797:9878   */\n      sstore\n        /* \"#utility.yul\":9659:9888   */\n      pop\n        /* \"#utility.yul\":8980:9888   */\n      jump(tag_172)\n        /* \"#utility.yul\":9010:9642   */\n    tag_173:\n        /* \"#utility.yul\":9062:9066   */\n      0x1f\n        /* \"#utility.yul\":9058:9067   */\n      not\n        /* \"#utility.yul\":9050:9056   */\n      dup5\n        /* \"#utility.yul\":9046:9068   */\n      and\n        /* \"#utility.yul\":9096:9133   */\n      tag_176\n        /* \"#utility.yul\":9128:9132   */\n      dup7\n        /* \"#utility.yul\":9096:9133   */\n      tag_54\n      jump\t// in\n    tag_176:\n        /* \"#utility.yul\":9155:9156   */\n      0x00\n        /* \"#utility.yul\":9169:9384   */\n    tag_177:\n        /* \"#utility.yul\":9183:9190   */\n      dup3\n        /* \"#utility.yul\":9180:9181   */\n      dup2\n        /* \"#utility.yul\":9177:9191   */\n      lt\n        /* \"#utility.yul\":9169:9384   */\n      iszero\n      tag_179\n      jumpi\n        /* \"#utility.yul\":9269:9278   */\n      dup5\n        /* \"#utility.yul\":9264:9267   */\n      dup10\n        /* \"#utility.yul\":9260:9279   */\n      add\n        /* \"#utility.yul\":9247:9280   */\n      calldataload\n        /* \"#utility.yul\":9239:9245   */\n      dup3\n        /* \"#utility.yul\":9232:9281   */\n      sstore\n        /* \"#utility.yul\":9320:9321   */\n      0x01\n        /* \"#utility.yul\":9312:9318   */\n      dup3\n        /* \"#utility.yul\":9308:9322   */\n      add\n        /* \"#utility.yul\":9298:9322   */\n      swap2\n      pop\n        /* \"#utility.yul\":9367:9369   */\n      0x20\n        /* \"#utility.yul\":9356:9365   */\n      dup6\n        /* \"#utility.yul\":9352:9370   */\n      add\n        /* \"#utility.yul\":9339:9370   */\n      swap5\n      pop\n        /* \"#utility.yul\":9206:9210   */\n      0x20\n        /* \"#utility.yul\":9203:9204   */\n      dup2\n        /* \"#utility.yul\":9199:9211   */\n      add\n        /* \"#utility.yul\":9194:9211   */\n      swap1\n      pop\n        /* \"#utility.yul\":9169:9384   */\n      jump(tag_177)\n    tag_179:\n        /* \"#utility.yul\":9412:9418   */\n      dup7\n        /* \"#utility.yul\":9403:9410   */\n      dup4\n        /* \"#utility.yul\":9400:9419   */\n      lt\n        /* \"#utility.yul\":9397:9583   */\n      iszero\n      tag_180\n      jumpi\n        /* \"#utility.yul\":9477:9486   */\n      dup5\n        /* \"#utility.yul\":9472:9475   */\n      dup10\n        /* \"#utility.yul\":9468:9487   */\n      add\n        /* \"#utility.yul\":9455:9488   */\n      calldataload\n        /* \"#utility.yul\":9520:9568   */\n      tag_181\n        /* \"#utility.yul\":9562:9566   */\n      0x1f\n        /* \"#utility.yul\":9554:9560   */\n      dup10\n        /* \"#utility.yul\":9550:9567   */\n      and\n        /* \"#utility.yul\":9539:9548   */\n      dup3\n        /* \"#utility.yul\":9520:9568   */\n      tag_67\n      jump\t// in\n    tag_181:\n        /* \"#utility.yul\":9512:9518   */\n      dup4\n        /* \"#utility.yul\":9505:9569   */\n      sstore\n        /* \"#utility.yul\":9420:9583   */\n      pop\n        /* \"#utility.yul\":9397:9583   */\n    tag_180:\n        /* \"#utility.yul\":9629:9630   */\n      0x01\n        /* \"#utility.yul\":9625:9626   */\n      0x02\n        /* \"#utility.yul\":9617:9623   */\n      dup9\n        /* \"#utility.yul\":9613:9627   */\n      mul\n        /* \"#utility.yul\":9609:9631   */\n      add\n        /* \"#utility.yul\":9603:9607   */\n      dup9\n        /* \"#utility.yul\":9596:9632   */\n      sstore\n        /* \"#utility.yul\":9017:9642   */\n      pop\n      pop\n      pop\n        /* \"#utility.yul\":8980:9888   */\n    tag_172:\n      pop\n        /* \"#utility.yul\":8590:9894   */\n      pop\n      pop\n      pop\n        /* \"#utility.yul\":8491:9894   */\n      pop\n      pop\n      pop\n      jump\t// out\n\n    auxdata: 0xa26469706673582212203b920a4762f179fa86613d9134f182078ef2ac687c47fb075cc00fcd38241fc864736f6c634300081a0033\n}\n",
				"bytecode": {
					"linkReferences": {},
					"object": "6080604052348015600e575f80fd5b506106de8061001c5f395ff3fe608060405234801561000f575f80fd5b506004361061003f575f3560e01c806306fdde031461004357806327e235e314610061578063c47f002714610091575b5f80fd5b61004b6100c1565b60405161005891906101ed565b60405180910390f35b61007b6004803603810190610076919061026f565b61014c565b60405161008891906102b2565b60405180910390f35b6100ab60048036038101906100a6919061032c565b610161565b6040516100b89190610391565b60405180910390f35b5f80546100cd906103d7565b80601f01602080910402602001604051908101604052809291908181526020018280546100f9906103d7565b80156101445780601f1061011b57610100808354040283529160200191610144565b820191905f5260205f20905b81548152906001019060200180831161012757829003601f168201915b505050505081565b6001602052805f5260405f205f915090505481565b5f82825f91826101729291906105db565b506001905092915050565b5f81519050919050565b5f82825260208201905092915050565b8281835e5f83830152505050565b5f601f19601f8301169050919050565b5f6101bf8261017d565b6101c98185610187565b93506101d9818560208601610197565b6101e2816101a5565b840191505092915050565b5f6020820190508181035f83015261020581846101b5565b905092915050565b5f80fd5b5f80fd5b5f73ffffffffffffffffffffffffffffffffffffffff82169050919050565b5f61023e82610215565b9050919050565b61024e81610234565b8114610258575f80fd5b50565b5f8135905061026981610245565b92915050565b5f602082840312156102845761028361020d565b5b5f6102918482850161025b565b91505092915050565b5f819050919050565b6102ac8161029a565b82525050565b5f6020820190506102c55f8301846102a3565b92915050565b5f80fd5b5f80fd5b5f80fd5b5f8083601f8401126102ec576102eb6102cb565b5b8235905067ffffffffffffffff811115610309576103086102cf565b5b602083019150836001820283011115610325576103246102d3565b5b9250929050565b5f80602083850312156103425761034161020d565b5b5f83013567ffffffffffffffff81111561035f5761035e610211565b5b61036b858286016102d7565b92509250509250929050565b5f8115159050919050565b61038b81610377565b82525050565b5f6020820190506103a45f830184610382565b92915050565b7f4e487b71000000000000000000000000000000000000000000000000000000005f52602260045260245ffd5b5f60028204905060018216806103ee57607f821691505b602082108103610401576104006103aa565b5b50919050565b5f82905092915050565b7f4e487b71000000000000000000000000000000000000000000000000000000005f52604160045260245ffd5b5f819050815f5260205f209050919050565b5f6020601f8301049050919050565b5f82821b905092915050565b5f6008830261049a7fffffffffffffffffffffffffffffffffffffffffffffffffffffffffffffffff8261045f565b6104a4868361045f565b95508019841693508086168417925050509392505050565b5f819050919050565b5f6104df6104da6104d58461029a565b6104bc565b61029a565b9050919050565b5f819050919050565b6104f8836104c5565b61050c610504826104e6565b84845461046b565b825550505050565b5f90565b610520610514565b61052b8184846104ef565b505050565b5b8181101561054e576105435f82610518565b600181019050610531565b5050565b601f821115610593576105648161043e565b61056d84610450565b8101602085101561057c578190505b61059061058885610450565b830182610530565b50505b505050565b5f82821c905092915050565b5f6105b35f1984600802610598565b1980831691505092915050565b5f6105cb83836105a4565b9150826002028217905092915050565b6105e58383610407565b67ffffffffffffffff8111156105fe576105fd610411565b5b61060882546103d7565b610613828285610552565b5f601f831160018114610640575f841561062e578287013590505b61063885826105c0565b86555061069f565b601f19841661064e8661043e565b5f5b8281101561067557848901358255600182019150602085019450602081019050610650565b86831015610692578489013561068e601f8916826105a4565b8355505b6001600288020188555050505b5050505050505056fea26469706673582212203b920a4762f179fa86613d9134f182078ef2ac687c47fb075cc00fcd38241fc864736f6c634300081a0033",
					"opcodes": "PUSH1 0x80 PUSH1 0x40 MSTORE CALLVALUE DUP1 ISZERO PUSH1 0xE JUMPI PUSH0 DUP1 REVERT JUMPDEST POP PUSH2 0x6DE DUP1 PUSH2 0x1C PUSH0 CODECOPY PUSH0 RETURN INVALID PUSH1 0x80 PUSH1 0x40 MSTORE CALLVALUE DUP1 ISZERO PUSH2 0xF JUMPI PUSH0 DUP1 REVERT JUMPDEST POP PUSH1 0x4 CALLDATASIZE LT PUSH2 0x3F JUMPI PUSH0 CALLDATALOAD PUSH1 0xE0 SHR DUP1 PUSH4 0x6FDDE03 EQ PUSH2 0x43 JUMPI DUP1 PUSH4 0x27E235E3 EQ PUSH2 0x61 JUMPI DUP1 PUSH4 0xC47F0027 EQ PUSH2 0x91 JUMPI JUMPDEST PUSH0 DUP1 REVERT JUMPDEST PUSH2 0x4B PUSH2 0xC1 JUMP JUMPDEST PUSH1 0x40 MLOAD PUSH2 0x58 SWAP2 SWAP1 PUSH2 0x1ED JUMP JUMPDEST PUSH1 0x40 MLOAD DUP1 SWAP2 SUB SWAP1 RETURN JUMPDEST PUSH2 0x7B PUSH1 0x4 DUP1 CALLDATASIZE SUB DUP2 ADD SWAP1 PUSH2 0x76 SWAP2 SWAP1 PUSH2 0x26F JUMP JUMPDEST PUSH2 0x14C JUMP JUMPDEST PUSH1 0x40 MLOAD PUSH2 0x88 SWAP2 SWAP1 PUSH2 0x2B2 JUMP JUMPDEST PUSH1 0x40 MLOAD DUP1 SWAP2 SUB SWAP1 RETURN JUMPDEST PUSH2 0xAB PUSH1 0x4 DUP1 CALLDATASIZE SUB DUP2 ADD SWAP1 PUSH2 0xA6 SWAP2 SWAP1 PUSH2 0x32C JUMP JUMPDEST PUSH2 0x161 JUMP JUMPDEST PUSH1 0x40 MLOAD PUSH2 0xB8 SWAP2 SWAP1 PUSH2 0x391 JUMP JUMPDEST PUSH1 0x40 MLOAD DUP1 SWAP2 SUB SWAP1 RETURN JUMPDEST PUSH0 DUP1 SLOAD PUSH2 0xCD SWAP1 PUSH2 0x3D7 JUMP JUMPDEST DUP1 PUSH1 0x1F ADD PUSH1 0x20 DUP1 SWAP2 DIV MUL PUSH1 0x20 ADD PUSH1 0x40 MLOAD SWAP1 DUP2 ADD PUSH1 0x40 MSTORE DUP1 SWAP3 SWAP2 SWAP1 DUP2 DUP2 MSTORE PUSH1 0x20 ADD DUP3 DUP1 SLOAD PUSH2 0xF9 SWAP1 PUSH2 0x3D7 JUMP JUMPDEST DUP1 ISZERO PUSH2 0x144 JUMPI DUP1 PUSH1 0x1F LT PUSH2 0x11B JUMPI PUSH2 0x100 DUP1 DUP4 SLOAD DIV MUL DUP4 MSTORE SWAP2 PUSH1 0x20 ADD SWAP2 PUSH2 0x144 JUMP JUMPDEST DUP3 ADD SWAP2 SWAP1 PUSH0 MSTORE PUSH1 0x20 PUSH0 KECCAK256 SWAP1 JUMPDEST DUP2 SLOAD DUP2 MSTORE SWAP1 PUSH1 0x1 ADD SWAP1 PUSH1 0x20 ADD DUP1 DUP4 GT PUSH2 0x127 JUMPI DUP3 SWAP1 SUB PUSH1 0x1F AND DUP3 ADD SWAP2 JUMPDEST POP POP POP POP POP DUP2 JUMP JUMPDEST PUSH1 0x1 PUSH1 0x20 MSTORE DUP1 PUSH0 MSTORE PUSH1 0x40 PUSH0 KECCAK256 PUSH0 SWAP2 POP SWAP1 POP SLOAD DUP2 JUMP JUMPDEST PUSH0 DUP3 DUP3 PUSH0 SWAP2 DUP3 PUSH2 0x172 SWAP3 SWAP2 SWAP1 PUSH2 0x5DB JUMP JUMPDEST POP PUSH1 0x1 SWAP1 POP SWAP3 SWAP2 POP POP JUMP JUMPDEST PUSH0 DUP2 MLOAD SWAP1 POP SWAP2 SWAP1 POP JUMP JUMPDEST PUSH0 DUP3 DUP3 MSTORE PUSH1 0x20 DUP3 ADD SWAP1 POP SWAP3 SWAP2 POP POP JUMP JUMPDEST DUP3 DUP2 DUP4 MCOPY PUSH0 DUP4 DUP4 ADD MSTORE POP POP POP JUMP JUMPDEST PUSH0 PUSH1 0x1F NOT PUSH1 0x1F DUP4 ADD AND SWAP1 POP SWAP2 SWAP1 POP JUMP JUMPDEST PUSH0 PUSH2 0x1BF DUP3 PUSH2 0x17D JUMP JUMPDEST PUSH2 0x1C9 DUP2 DUP6 PUSH2 0x187 JUMP JUMPDEST SWAP4 POP PUSH2 0x1D9 DUP2 DUP6 PUSH1 0x20 DUP7 ADD PUSH2 0x197 JUMP JUMPDEST PUSH2 0x1E2 DUP2 PUSH2 0x1A5 JUMP JUMPDEST DUP5 ADD SWAP2 POP POP SWAP3 SWAP2 POP POP JUMP JUMPDEST PUSH0 PUSH1 0x20 DUP3 ADD SWAP1 POP DUP2 DUP2 SUB PUSH0 DUP4 ADD MSTORE PUSH2 0x205 DUP2 DUP5 PUSH2 0x1B5 JUMP JUMPDEST SWAP1 POP SWAP3 SWAP2 POP POP JUMP JUMPDEST PUSH0 DUP1 REVERT JUMPDEST PUSH0 DUP1 REVERT JUMPDEST PUSH0 PUSH20 0xFFFFFFFFFFFFFFFFFFFFFFFFFFFFFFFFFFFFFFFF DUP3 AND SWAP1 POP SWAP2 SWAP1 POP JUMP JUMPDEST PUSH0 PUSH2 0x23E DUP3 PUSH2 0x215 JUMP JUMPDEST SWAP1 POP SWAP2 SWAP1 POP JUMP JUMPDEST PUSH2 0x24E DUP2 PUSH2 0x234 JUMP JUMPDEST DUP2 EQ PUSH2 0x258 JUMPI PUSH0 DUP1 REVERT JUMPDEST POP JUMP JUMPDEST PUSH0 DUP2 CALLDATALOAD SWAP1 POP PUSH2 0x269 DUP2 PUSH2 0x245 JUMP JUMPDEST SWAP3 SWAP2 POP POP JUMP JUMPDEST PUSH0 PUSH1 0x20 DUP3 DUP5 SUB SLT ISZERO PUSH2 0x284 JUMPI PUSH2 0x283 PUSH2 0x20D JUMP JUMPDEST JUMPDEST PUSH0 PUSH2 0x291 DUP5 DUP3 DUP6 ADD PUSH2 0x25B JUMP JUMPDEST SWAP2 POP POP SWAP3 SWAP2 POP POP JUMP JUMPDEST PUSH0 DUP2 SWAP1 POP SWAP2 SWAP1 POP JUMP JUMPDEST PUSH2 0x2AC DUP2 PUSH2 0x29A JUMP JUMPDEST DUP3 MSTORE POP POP JUMP JUMPDEST PUSH0 PUSH1 0x20 DUP3 ADD SWAP1 POP PUSH2 0x2C5 PUSH0 DUP4 ADD DUP5 PUSH2 0x2A3 JUMP JUMPDEST SWAP3 SWAP2 POP POP JUMP JUMPDEST PUSH0 DUP1 REVERT JUMPDEST PUSH0 DUP1 REVERT JUMPDEST PUSH0 DUP1 REVERT JUMPDEST PUSH0 DUP1 DUP4 PUSH1 0x1F DUP5 ADD SLT PUSH2 0x2EC JUMPI PUSH2 0x2EB PUSH2 0x2CB JUMP JUMPDEST JUMPDEST DUP3 CALLDATALOAD SWAP1 POP PUSH8 0xFFFFFFFFFFFFFFFF DUP2 GT ISZERO PUSH2 0x309 JUMPI PUSH2 0x308 PUSH2 0x2CF JUMP JUMPDEST JUMPDEST PUSH1 0x20 DUP4 ADD SWAP2 POP DUP4 PUSH1 0x1 DUP3 MUL DUP4 ADD GT ISZERO PUSH2 0x325 JUMPI PUSH2 0x324 PUSH2 0x2D3 JUMP JUMPDEST JUMPDEST SWAP3 POP SWAP3 SWAP1 POP JUMP JUMPDEST PUSH0 DUP1 PUSH1 0x20 DUP4 DUP6 SUB SLT ISZERO PUSH2 0x342 JUMPI PUSH2 0x341 PUSH2 0x20D JUMP JUMPDEST JUMPDEST PUSH0 DUP4 ADD CALLDATALOAD PUSH8 0xFFFFFFFFFFFFFFFF DUP2 GT ISZERO PUSH2 0x35F JUMPI PUSH2 0x35E PUSH2 0x211 JUMP JUMPDEST JUMPDEST PUSH2 0x36B DUP6 DUP3 DUP7 ADD PUSH2 0x2D7 JUMP JUMPDEST SWAP3 POP SWAP3 POP POP SWAP3 POP SWAP3 SWAP1 POP JUMP JUMPDEST PUSH0 DUP2 ISZERO ISZERO SWAP1 POP SWAP2 SWAP1 POP JUMP JUMPDEST PUSH2 0x38B DUP2 PUSH2 0x377 JUMP JUMPDEST DUP3 MSTORE POP POP JUMP JUMPDEST PUSH0 PUSH1 0x20 DUP3 ADD SWAP1 POP PUSH2 0x3A4 PUSH0 DUP4 ADD DUP5 PUSH2 0x382 JUMP JUMPDEST SWAP3 SWAP2 POP POP JUMP JUMPDEST PUSH32 0x4E487B7100000000000000000000000000000000000000000000000000000000 PUSH0 MSTORE PUSH1 0x22 PUSH1 0x4 MSTORE PUSH1 0x24 PUSH0 REVERT JUMPDEST PUSH0 PUSH1 0x2 DUP3 DIV SWAP1 POP PUSH1 0x1 DUP3 AND DUP1 PUSH2 0x3EE JUMPI PUSH1 0x7F DUP3 AND SWAP2 POP JUMPDEST PUSH1 0x20 DUP3 LT DUP2 SUB PUSH2 0x401 JUMPI PUSH2 0x400 PUSH2 0x3AA JUMP JUMPDEST JUMPDEST POP SWAP2 SWAP1 POP JUMP JUMPDEST PUSH0 DUP3 SWAP1 POP SWAP3 SWAP2 POP POP JUMP JUMPDEST PUSH32 0x4E487B7100000000000000000000000000000000000000000000000000000000 PUSH0 MSTORE PUSH1 0x41 PUSH1 0x4 MSTORE PUSH1 0x24 PUSH0 REVERT JUMPDEST PUSH0 DUP2 SWAP1 POP DUP2 PUSH0 MSTORE PUSH1 0x20 PUSH0 KECCAK256 SWAP1 POP SWAP2 SWAP1 POP JUMP JUMPDEST PUSH0 PUSH1 0x20 PUSH1 0x1F DUP4 ADD DIV SWAP1 POP SWAP2 SWAP1 POP JUMP JUMPDEST PUSH0 DUP3 DUP3 SHL SWAP1 POP SWAP3 SWAP2 POP POP JUMP JUMPDEST PUSH0 PUSH1 0x8 DUP4 MUL PUSH2 0x49A PUSH32 0xFFFFFFFFFFFFFFFFFFFFFFFFFFFFFFFFFFFFFFFFFFFFFFFFFFFFFFFFFFFFFFFF DUP3 PUSH2 0x45F JUMP JUMPDEST PUSH2 0x4A4 DUP7 DUP4 PUSH2 0x45F JUMP JUMPDEST SWAP6 POP DUP1 NOT DUP5 AND SWAP4 POP DUP1 DUP7 AND DUP5 OR SWAP3 POP POP POP SWAP4 SWAP3 POP POP POP JUMP JUMPDEST PUSH0 DUP2 SWAP1 POP SWAP2 SWAP1 POP JUMP JUMPDEST PUSH0 PUSH2 0x4DF PUSH2 0x4DA PUSH2 0x4D5 DUP5 PUSH2 0x29A JUMP JUMPDEST PUSH2 0x4BC JUMP JUMPDEST PUSH2 0x29A JUMP JUMPDEST SWAP1 POP SWAP2 SWAP1 POP JUMP JUMPDEST PUSH0 DUP2 SWAP1 POP SWAP2 SWAP1 POP JUMP JUMPDEST PUSH2 0x4F8 DUP4 PUSH2 0x4C5 JUMP JUMPDEST PUSH2 0x50C PUSH2 0x504 DUP3 PUSH2 0x4E6 JUMP JUMPDEST DUP5 DUP5 SLOAD PUSH2 0x46B JUMP JUMPDEST DUP3 SSTORE POP POP POP POP JUMP JUMPDEST PUSH0 SWAP1 JUMP JUMPDEST PUSH2 0x520 PUSH2 0x514 JUMP JUMPDEST PUSH2 0x52B DUP2 DUP5 DUP5 PUSH2 0x4EF JUMP JUMPDEST POP POP POP JUMP JUMPDEST JUMPDEST DUP2 DUP2 LT ISZERO PUSH2 0x54E JUMPI PUSH2 0x543 PUSH0 DUP3 PUSH2 0x518 JUMP JUMPDEST PUSH1 0x1 DUP2 ADD SWAP1 POP PUSH2 0x531 JUMP JUMPDEST POP POP JUMP JUMPDEST PUSH1 0x1F DUP3 GT ISZERO PUSH2 0x593 JUMPI PUSH2 0x564 DUP2 PUSH2 0x43E JUMP JUMPDEST PUSH2 0x56D DUP5 PUSH2 0x450 JUMP JUMPDEST DUP2 ADD PUSH1 0x20 DUP6 LT ISZERO PUSH2 0x57C JUMPI DUP2 SWAP1 POP JUMPDEST PUSH2 0x590 PUSH2 0x588 DUP6 PUSH2 0x450 JUMP JUMPDEST DUP4 ADD DUP3 PUSH2 0x530 JUMP JUMPDEST POP POP JUMPDEST POP POP POP JUMP JUMPDEST PUSH0 DUP3 DUP3 SHR SWAP1 POP SWAP3 SWAP2 POP POP JUMP JUMPDEST PUSH0 PUSH2 0x5B3 PUSH0 NOT DUP5 PUSH1 0x8 MUL PUSH2 0x598 JUMP JUMPDEST NOT DUP1 DUP4 AND SWAP2 POP POP SWAP3 SWAP2 POP POP JUMP JUMPDEST PUSH0 PUSH2 0x5CB DUP4 DUP4 PUSH2 0x5A4 JUMP JUMPDEST SWAP2 POP DUP3 PUSH1 0x2 MUL DUP3 OR SWAP1 POP SWAP3 SWAP2 POP POP JUMP JUMPDEST PUSH2 0x5E5 DUP4 DUP4 PUSH2 0x407 JUMP JUMPDEST PUSH8 0xFFFFFFFFFFFFFFFF DUP2 GT ISZERO PUSH2 0x5FE JUMPI PUSH2 0x5FD PUSH2 0x411 JUMP JUMPDEST JUMPDEST PUSH2 0x608 DUP3 SLOAD PUSH2 0x3D7 JUMP JUMPDEST PUSH2 0x613 DUP3 DUP3 DUP6 PUSH2 0x552 JUMP JUMPDEST PUSH0 PUSH1 0x1F DUP4 GT PUSH1 0x1 DUP2 EQ PUSH2 0x640 JUMPI PUSH0 DUP5 ISZERO PUSH2 0x62E JUMPI DUP3 DUP8 ADD CALLDATALOAD SWAP1 POP JUMPDEST PUSH2 0x638 DUP6 DUP3 PUSH2 0x5C0 JUMP JUMPDEST DUP7 SSTORE POP PUSH2 0x69F JUMP JUMPDEST PUSH1 0x1F NOT DUP5 AND PUSH2 0x64E DUP7 PUSH2 0x43E JUMP JUMPDEST PUSH0 JUMPDEST DUP3 DUP2 LT ISZERO PUSH2 0x675 JUMPI DUP5 DUP10 ADD CALLDATALOAD DUP3 SSTORE PUSH1 0x1 DUP3 ADD SWAP2 POP PUSH1 0x20 DUP6 ADD SWAP5 POP PUSH1 0x20 DUP2 ADD SWAP1 POP PUSH2 0x650 JUMP JUMPDEST DUP7 DUP4 LT ISZERO PUSH2 0x692 JUMPI DUP5 DUP10 ADD CALLDATALOAD PUSH2 0x68E PUSH1 0x1F DUP10 AND DUP3 PUSH2 0x5A4 JUMP JUMPDEST DUP4 SSTORE POP JUMPDEST PUSH1 0x1 PUSH1 0x2 DUP9 MUL ADD DUP9 SSTORE POP POP POP JUMPDEST POP POP POP POP POP POP POP JUMP INVALID LOG2 PUSH5 0x6970667358 0x22 SLT KECCAK256 EXTCODESIZE SWAP3 EXP SELFBALANCE PUSH3 0xF179FA DUP7 PUSH2 0x3D91 CALLVALUE CALL DUP3 SMOD DUP15 CALLCODE 0xAC PUSH9 0x7C47FB075CC00FCD38 0x24 0x1F 0xC8 PUSH5 0x736F6C6343 STOP ADDMOD BYTE STOP CALLER "
				},
				"gasEstimates": {
					"creation": {
						"codeDepositCost": "351600",
						"executionCost": "384",
						"totalCost": "351984"
					},
					"external": {
						"balances(address)": "2802",
						"name()": "infinite",
						"setName(string)": "infinite"
					}
				},
				"methodIdentifiers": {
					"balances(address)": "27e235e3",
					"name()": "06fdde03",
					"setName(string)": "c47f0027"
				}
			},
			"storageLayout": {
				"storage": [
					{
						"astId": 54,
						"contract": "contracts/MyContract.sol:AnotherContract",
						"label": "name",
						"offset": 0,
						"slot": "0",
						"type": "t_string_storage"
					},
					{
						"astId": 58,
						"contract": "contracts/MyContract.sol:AnotherContract",
						"label": "balances",
						"offset": 0,
						"slot": "1",
						"type": "t_mapping(t_address,t_uint256)"
					}
				],
				"types": {
					"t_address": {
						"encoding": "inplace",
						"label": "address",
						"numberOfBytes": "20"
					},
					"t_mapping(t_address,t_uint256)": {
						"encoding": "mapping",
						"key": "t_address",
						"label": "mapping(address => uint256)",
						"numberOfBytes": "32",
						"value": "t_uint256"
					},
					"t_string_storage": {
						"encoding": "bytes",
						"label": "string",
						"numberOfBytes": "32"
					},
					"t_uint256": {
						"encoding": "inplace",
						"label": "uint256",
						"numberOfBytes": "32"
					}
				}
			},
			"userdoc": {
				"kind": "user",
				"methods": {},
				"version": 1
			}
		}
	}
}